:020000040800F2
:10000000B0E000204901000821A70008558B000836
:100010001DA70008C5140008A5160108000000006F
:1000200000000000000000000000000011E30008D4
:10003000E5450008000000008DAC00080DE4000854
:1000400063010008630100086301000889AF00082C
:1000500063010008630100086301000863010008F0
:1000600063010008630100086301000861420008A1
:1000700063010008630100086301000863010008D0
:1000800063010008630100086301000863010008C0
:1000900063010008630100086301000863010008B0
:1000A00063010008630100086301000863010008A0
:1000B0006301000863010008630100086301000890
:1000C0006301000863010008630100086301000880
:1000D00063010008FD060108630100080D0701081F
:1000E0006301000863010008630100086301000860
:1000F0006301000863010008630100086301000850
:10010000630100086301000863010008630100083F
:1001100035EE00086301000869E500086301000886
:10012000630100086301000863010008630100081F
:10013000DFF810D000F05EFF00480047A99F0108DB
:10014000AFF30080B0E00020064880470648004733
:10015000FEE7FEE7FEE7FEE7FEE7FEE7FEE7FEE777
:10016000FEE7FEE79DE40008310100082DE9F04FAD
:100170004FF0000C4FF0000301EB1C6EBEF9025073
:10018000BEF900400EF5807EBEF90290BEF90080F7
:100190000EF5807EBEF90270BEF900600EF5807E1D
:1001A000BEF902B0BEF900A00EF5807ED044D9445D
:1001B000A8EB4A0AA9EB4B0B4FEAA4044FEAA505AA
:1001C00004EBA60405EBA705A4EB6606A5EB670701
:1001D00004EBA80405EBA905A4EB6808A5EB6909E5
:1001E00006EBAB06A7EBAA07A6EB6B0B07EB6A0ABD
:1001F000458020F8044B478020F8046BA0F802905B
:1002000020F8048BA0F802A020F804BB03F101033E
:1002100093FAA3FC402BAFD1A0EB82014FF0100367
:1002200012090FF2361000F1000006B403EB430C84
:100230006144A2F5803202EB8332B1F90250B1F988
:100240000040A1EB0301B0F902B0B0F900A000F149
:100250000400A5EB040E0EFB0BFC0AEB4B0E05FB9A
:100260000ACB04FB0ECAB1F90250B1F90040A1EB70
:100270000301B0F90290B0F9008000F10400A5EB91
:10028000040E0EFB09FC08EB490E05FB08C904FB34
:100290000EC8B1F90250B1F90040A1EB0301B0F969
:1002A0000270B0F9006000F10400A5EB040E0EFB33
:1002B00007FC06EB470E05FB06C704FB0EC6B1F9AB
:1002C0000250B1F9004001F10001D044D944A8EB3B
:1002D0004A0AA9EB4B0B4FEAA4044FEAA50504EB2D
:1002E000264405EB2745A4EBE636A5EBE73704EB00
:1002F000284405EB2945A4EBE838A5EBE93906EBE2
:100300002B46A7EB2A47A6EBEB3B07EBEA3A4D80DF
:100310000C8019444F800E801944A1F80290A1F876
:1003200000801944A1F802A021F804BBB2F5803284
:1003300083DA03EB430C6144A2F101025FEA024E4F
:1003400018BFA0EB0C007FF476AF06BC4FEA830326
:1003500092087FF46AAFBDE8F08F004000000040D3
:100360000000004000005DDD213BA3227E1800005C
:10037000412D7EA5412D0000412D00C000405DDDD6
:1003800082E75DDD213B7EA5412D0040000000405D
:10039000000000400000AA2A94126B394606493238
:1003A0007C0CA8118E2349327C0CA3227E1821F7E5
:1003B0007931AA2A9412A8118E235DDD213BA32254
:1003C0007E180000412D95C6B13F461A2B1E58EEEF
:1003D0003735BEB4C53EA8118E235DDD213B63A930
:1003E0007138DF089A28B7CDC53E7EA5412D0000A3
:1003F000412D00C0004063A92B1E21F77931BEB406
:10040000C53EBEB47C0C58EE373561AC213B95C679
:10041000BAF9BAE571383BA737355DDD82E75DDDB6
:10042000213B7EA5412D21F766D756D53F3D3BA701
:100430008E23A811C9CAB7CDC53E61AC7E18AA2AC1
:10044000C1C295C6B13FBEB47C0C00400000004064
:100450000000004000001E3BB504693E9201C83C0C
:100460002403EB356409C83C24036B3946066C3021
:10047000060E1E3BB504EB356409AA2A94126B39AB
:10048000460649327C0CAE240917AF37D607882EB2
:100490008D0F7E1E5D1BEB356409AA2A9412241869
:1004A0008C1F1E34F10AB3269015A8118E234932F1
:1004B0007C0CA3227E18140B60276C30060E7E1E67
:1004C0005D1B7104FB2A882E8D0F461A2B1EC7FD5B
:1004D0005A2E9D2C1211FE15E72021F77931AA2AF8
:1004E0009412A8118E2387F05334B2281314480DA8
:1004F000202602EAE536B3269015DF089A289CE309
:100500002B39AE2409177104FB2A5DDD213BA322A0
:100510007E180000412D4ED7C53C9320EF198FFB6C
:100520006C2F78D1153E7E1E5D1B21F77931E2CB11
:100530000F3F641CC61CB8F2683395C6B13F461A1B
:100540002B1E58EE373597C1FB3F24188C1F02EA4B
:10055000E536F0BCEC3FFE15E720BAE57138A6B8E9
:10056000853FD5133D2282E1DB39BEB4C53EA811DB
:100570008E235DDD213B40B1AF3D790FDA244DD9AB
:10058000423C2EAE423C480D202656D53F3D8EAB18
:10059000823A140B602778D1153E63A97138DF08C1
:1005A0009A28B7CDC53EB1A71236A906CE2915CADD
:1005B0004F3F78A668337104FB2A95C6B13FBCA5AE
:1005C00076303902212C38C3EC3F7EA5412D000046
:1005D000412D00C00040BCA5CE29C7FD5A2EF0BC5D
:1005E000EC3F78A620268FFB6C2F09BAB13FB1A74C
:1005F0003D2257F976304DB74F3F63A92B1E21F7A7
:100600007931BEB4C53E8EABEF19ECF474325EB2F4
:10061000153E2EAE9015B8F268332DB03F3D40B177
:10062000121187F053342EAE423CBEB47C0C58EE0F
:10063000373561AC213BA6B8D6072BEC1236C8AAD9
:10064000DB39F0BC240302EAE53663A9713897C1AF
:100650006EFEDCE7B03734A8E53695C6BAF9BAE5E0
:1006600071383BA73735E2CB0FF59CE32B3978A6E1
:10067000683378D173F082E1DB39EDA579314ED75B
:10068000EDEB6DDF823A99A56C2F5DDD82E75DDDD4
:10069000213B7EA5412D9CE33AE352DBB63B99A575
:1006A000FB2A02EA19DF4DD9423CEDA59A2887F0D2
:1006B00026DB4ED7C53C78A6202621F766D756D52F
:1006C0003F3D3BA78E23C7FDDFD363D3AF3D34A8A7
:1006D000E720710494D078D1153E63A92B1E140B2A
:1006E0008CCD94CF723EC8AA5D1BA811C9CAB7CDE4
:1006F000C53E61AC7E18241850C8E2CB0F3F2EAE29
:1007000090157E1E25C615CA4F3F2DB09412AE24FB
:100710004AC451C8853F5EB28D0FAA2AC1C295C690
:10072000B13FBEB47C0C6C308EC1E2C4D43F4DB737
:100730006409EB35B1C038C3EC3F09BA46061E3B2D
:100740002CC097C1FB3FF0BC2403202A04DB203AD5
:1007500021FA02F00021704721FA02F3D040C2F1E1
:100760002002914008431946704740EA01039B0765
:1007700003D009E008C9121F08C0042AFAD203E016
:1007800011F8013B00F8013B521EF9D27047D2B27A
:1007900001E000F8012B491EFBD270470022F6E76A
:1007A00010B513460A4604461946FFF7F0FF2046E7
:1007B00010BDF0B480EA0102D40F4200B2EB410F49
:1007C00002D20246084611464A0042D0C30DDDB2AD
:1007D000C1F3C752AD1A202D35DAC1F3160141F429
:1007E000000204B15242C5F1200602FA06F12A4184
:1007F0001044B3EBD05F23D0C4B1012DA0EBC350A4
:1008000009DCF0BC4FF0004202EAC352DBB200F553
:10081000000000F013BB400000F1807000EBC350FB
:10082000A0F1807040EAD170490009E0490841EA2E
:10083000C071A0EBC35000F50000400800EBC350AE
:10084000F0BC00F0F2BA6142012202EB4101001B50
:10085000F6E7F0BC704781F00041AAE780F0004065
:10086000A7E780EA010210B502F00043400022D061
:100870004A001FD0010E01EB1261C0F35600C2F313
:10088000560240F4000042F40002A0FB02200004E3
:100890007F39140400D0401C50EA124001D44000BB
:1008A000491EC2B20C0604EBD010401C4008802A3E
:1008B00002D003E0002010BD20F00100002900DA82
:1008C0000020184310BD30B480EA010202F0004558
:1008D00030F0004221F0004013D090B1C30DD40D90
:1008E000C2F31601C0F31600E41A41F4000140F40B
:1008F00000027D34914201D3641C00E04900002CC9
:1009000002DA30BC002070474FF40000002391420F
:1009100001D3891A034340084FEA4101F7D151B18D
:10092000914202D14FF0004105E002D24FF00101A7
:1009300001E06FF0010103EBC450284430BC00F02B
:1009400074BA2DE9FE4F804681EA0300C00F0C46C1
:10095000009021F0004123F00045B8EB0200A941CE
:1009600005D24046214690461C460B46024623F0DF
:100970000040104347D0270DC7F30A00C3F30A51C4
:100980000290401A019040286BDAC3F3130040F440
:10099000801B0098924620B10023D2EB030A63EB40
:1009A0000B0B01985946C0F14002504600F01CFA6A
:1009B00006460D4650465946019A00F024FA10EBBF
:1009C00008006141002487EA115284EAE7731A4360
:1009D00040D0009A62B3019A012A4FEA075215DC0F
:1009E000001B61EB02014FF0004202EA0752CDE921
:1009F0000042001C41F5801132462B4600F05BFAA4
:100A000003B0BDE8F08F40462146F9E7001B61EBDB
:100A10000201001C41F5801300185B412018A2F56B
:100A2000001747EB030140EAD570B6196D4111E09C
:100A30006D084FEA360645EAC0754FEA0752001BBB
:100A400061EB0201001C41F5801149084FEA3000BA
:100A50000019514132462B4603B0BDE8F04F00F07B
:100A60001BBA0098012240000023D0EB020263EB86
:100A7000E073009821464FEAE074B8EB000061EBA8
:100A80000401E9E783F000435BE781F0004158E7A8
:100A90002DE9FE4F81EA030404F0004421F00041F7
:100AA00000944FF0000B23F0004350EA01045ED0A5
:100AB00052EA03045BD0C3F30A54C1F30A552C4431
:100AC000A4F2F3340194A0FB0254C1F3130141F4E6
:100AD0008011C3F3130343F4801301FB024400FBB2
:100AE000034E840A970A44EA815447EA8357A4FBD9
:100AF000076802958D0A05FB07854FEA932C04FBD6
:100B00000C542705029D4FEA065847EA1637B5EB05
:100B100008056EEB070C870E920E47EA811742EA32
:100B20008312A7FB0201B6EB0B0164EB00042B0D53
:100B300043EA0C335E1844EB1C50DA465146E7FB9F
:100B40000201C5F313044FEA0B3343EA14534FEA8F
:100B50000432019C43EA0603A4F10C040294009CB5
:100B6000CDE900B400F0A7F903B0BDE8F08F002094
:100B70000146F9E72DE9F04D81EA030404F0004B4A
:100B800021F0004514464FF0000A23F0004150EADE
:100B9000050220D054EA01021DD0C5F30A570246CF
:100BA000C5F31303C1F31300C1F30A5640F48015D3
:100BB00043F48013A7EB0608101BD64608F2FD3855
:100BC00073EB050002D308F1010801E092185B41C4
:100BD000B8F1000F03DA00200146BDE8F08D0020D7
:100BE0004FF48011064684460EE0171B73EB050791
:100BF00005D3121B63EB050306434CEA010C4908BD
:100C00004FEA300092185B4150EA0107EDD152EAF9
:100C1000030012D082EA040083EA0501084305D0EC
:100C2000101BAB4106D20122002306E000224FF048
:100C3000004302E06FF0010253101AEB06004CEB88
:100C4000085110EB0A0041EB0B01BDE8F04D00F03C
:100C500023B9C10F80EAE0700844CA079623002137
:100C600000F0ECB896230022114600F0E7B80EB56C
:100C7000C10F80EAE0700844CA07002140F2334304
:100C80008DE80E000A460B4600F015F903B000BDD2
:100C90000EB540F2334102910021CDE900110A4620
:100CA0000B4600F008F903B000BD00F0004220F050
:100CB0000040C10DC0F3160040F400007F2901DAA6
:100CC00000207047962903DCC1F19601C84001E07D
:100CD00096398840002AF4D04042704720F0004006
:100CE000C10DC0F3160040F400007F2901DA002096
:100CF0007047962903DCC1F19601C84070479639C8
:100D00008840704770B5C1F30A5201F000450024D5
:100D1000C1F3130140F2FF3341F480119A4201DA2A
:100D2000002070BD40F233439A42A2F2334203DC0A
:100D30005242FFF70AFD00E090402C43F1D04042C0
:100D400070BDC1F30A5210B5C1F3130140F2FF3375
:100D500041F480119A4201DA002010BD40F2334381
:100D60009A42A2F2334203DC5242FFF7EEFC10BD7E
:100D7000904010BD00F0004230F000400AD0C10D9C
:100D800001F56071C0F3160042EA0151C208400744
:100D90001143704700200146704701F0004330B412
:100DA00021F0004150EA010206D00A0DA2F560725E
:100DB000C1F31301002A02DC30BC00207047440F4D
:100DC00044EAC104C100E01830BC00EBC25000F09E
:100DD0002CB80000002801DBC0F10040002901DB35
:100DE000C1F1004188427047202A04DB203A00FA12
:100DF00002F1002070479140C2F1200320FA03F372
:100E0000194390407047202A06DBCB17203A41FA5D
:100E100002F043EAE07306E041FA02F3D040C2F187
:100E2000200291400843194670470029A8BF704727
:100E3000401C490008BF20F00100704710B4B0FA10
:100E400080FC00FA0CF050EA010404BF10BC7047AB
:100E500049B1CCF1200421FA04F411FA0CF118BFC5
:100E6000012121430843A3EB0C01CB1D4FEA006194
:100E70004FEA102042BF002010BC704700EBC35067
:100E800010440029A4BF10BC7047401C490008BF93
:100E900020F0010010BC704710B5141E73F100045F
:100EA00008DA401C41F1000192185B411A4301D15C
:100EB00020F0010010BD2DE9F04D92469B4611B186
:100EC000B1FA81F202E0B0FA80F220329046FFF7E8
:100ED0008BFF04460F4640EA0A0041EA0B015346E5
:100EE0005A46084313D0114653EA010019D0C8F1FD
:100EF00040025046FFF729FC05460E46504659462B
:100F00004246FFF771FF084305D0012004E0204668
:100F10003946BDE8F08D0020054346EAE0762C43D3
:100F200037430A986305E40AA0EB08000022FD0A93
:100F300044EA47540A3002D500200146E9E701059A
:100F400010196941DDE9084500196941BDE8F04D16
:100F5000A2E72DE9F04D00231A461B1A8A4103DB54
:100F600000200146BDE8F08DC1F30A52C1F3130120
:100F700041F480154FF0000BD10702D100186D41EC
:100F8000521E0027044640F2FF11384601EB620A68
:100F90003E468046024600204FF48011FFF7D5FB05
:100FA000C2197141BB1846EB0100B4EB030C75EBA1
:100FB000000C04D3E41A65EB000517460E4624190D
:100FC00008F101006D4180463428E3DDF91946EB54
:100FD0000600091BA84103D24FF0FF32134601E07F
:100FE000002213461BEB070046EB0A51BDE8F04D0B
:100FF000FFF752BF064C074D06E0E06840F00103E2
:1010000094E8070098471034AC42F6D3FFF794F801
:1010100074B4010894B4010870B58D1810F8014B30
:1010200014F0030201D110F8012B231106D110F89E
:10103000013B03E010F8016B01F8016B521EF9D17E
:10104000ABB110F8012B04F00C048A1A0C2C03D05D
:10105000A2EB84129B1C08E010F8014BA2EB0422C7
:10106000F8E712F8014B01F8014B5B1EF9D5A942D4
:10107000D4D3002070BD70B5044600252068806878
:1010800000F0010018B32068806820F0010021689A
:10109000886005F0F9F9054613E005F0F5F9401B05
:1010A00002280ED92068806800F0010048B1A06ACB
:1010B00040F01000A062E06A40F00100E062012010
:1010C00070BD2068806800F001000028E5D1002094
:1010D000F6E770B505466C6AA06A00F05000E0B90A
:1010E000A06A40F40070A0622068806800F460206C
:1010F000B0F5602F0DD1207B58B9A06A20F4807024
:10110000A062A06A00F4805018B9A06A40F0010003
:10111000A062204604F0A8FA03E0206A016B28468A
:10112000884770BD70B505466C6AA06A40F0400003
:10113000A062E06A40F00400E062204604F096FA03
:1011400070BD70B50446656A284604F08EFA70BD1D
:1011500038B504460025002000902068806800F023
:10116000010078BB2068806840F001002168886039
:10117000194800681949B0FBF1F0009002E00098AE
:10118000401E009000980028F9D105F07DF9054631
:1011900019E005F079F9401B022814D9206880680D
:1011A00000F0010078B9A06A40F01000A062E06A87
:1011B00040F00100E06200BF002084F8240000BF7E
:1011C000012038BD05E02068806800F0010000289B
:1011D000DFD00020F5E70000504B002040420F0018
:1011E0002DE9F0410446884615461E4607F042FEAA
:1011F000304607F00BFE07F07DFE201207F006FEDA
:1012000007F078FE2746E11704EB11610912A4EB01
:101210000121C8B207F0FAFD07F06CFE07F02AFEC4
:10122000711CC8B207F0F2FD07F064FE04E0012073
:1012300007F0BEFD28706D1CA8F10100C0B2B0F12E
:101240000008F4DC002007F0B3FD287007F032FE40
:101250000020BDE8F0812DE9F04104460D4600274D
:1012600007F008FE284607F0D1FD07F043FE2012E4
:1012700007F0CCFD07F03EFE2646E11704EB1161B6
:101280000912A4EB0121C8B207F0C0FD07F032FE3D
:1012900007F0F0FD691CC8B207F0B8FD07F02AFEA0
:1012A000002007F085FD074607F004FE3846BDE83C
:1012B000F0812DE9F04104460E46174607F0DAFDAD
:1012C000384607F0A3FD07F015FE201207F09EFD3B
:1012D00007F010FE2546E11704EB11610912A4EB9B
:1012E0000121C8B207F092FD07F004FE304607F076
:1012F0008DFD07F0FFFD07F0DDFD0F2015F0D8F99B
:10130000BDE8F081F0B502460C4600200021002324
:1013100000250026012C0BD1177807F00F0792F853
:1013200000C04FEA1C1C0CEB8C0C07EB4C01084670
:10133000022C1BD1177807F00F0792F800C04FEA74
:101340001C1C0CEB8C0C07EB4C01577807F00F07BB
:1013500092F801C04FEA1C1C0CEB8C0C07EB4C0301
:1013600003EBC30707EB031701EB8700032C2BD11B
:10137000177807F00F0792F800C04FEA1C1C0CEB1F
:101380008C0C07EB4C01577807F00F0792F801C05F
:101390004FEA1C1C0CEB8C0C07EB4C03977807F006
:1013A0000F0792F802C04FEA1C1C0CEB8C0C07EBE9
:1013B0004C0503EBC30707EB031701EB870C40F267
:1013C00071276F430CEB0710042C3BD1177807F003
:1013D0000F0792F800C04FEA1C1C0CEB8C0C07EBBB
:1013E0004C01577807F00F0792F801C04FEA1C1C18
:1013F0000CEB8C0C07EB4C03977807F00F0792F877
:1014000002C04FEA1C1C0CEB8C0C07EB4C05D77888
:1014100007F00F0792F803C04FEA1C1C0CEB8C0C72
:1014200007EB4C0603EBC30707EB031701EB870C35
:1014300040F271276F430CEB071C40F635477743AA
:101440000CEB4710F0BD00001CB5002407E0C4F110
:1014500005001849085C0DF80400601CC4B2062C95
:10146000F5DB9DF800001449C8709DF80100487034
:101470009DF8020088709DF80300104908709DF8DF
:10148000040048709DF8050088709DF805209DF8BF
:1014900004109DF8030009F007FE9DF802209DF856
:1014A00001109DF8000009F0EDFD012004490870CD
:1014B0001CBD0000DDCE0020B1350020B535002078
:1014C0000B2B002000BFFEE710B5024600200229CA
:1014D00003D11378547803EB0420032906D19378C1
:1014E0001B04547803EB04231478181910BD000072
:1014F000002004E00021084A1154411CC8B26428AD
:10150000F8DB002005490870054908700549087096
:101510000549087070470000DA4D0020612700205F
:1015200062270020C42C00206027002010B5FE4850
:101530000068401CFC4908600846006840F2DD5124
:10154000884202D90020F8490860F848007801284C
:1015500017D1F7480068401CF54908600846006844
:1015600041F2707188420CD300228021F14804F0CE
:1015700085FF5520F04908700020ED490860EB49CF
:101580000870EE480078012815D1ED480068401C2D
:10159000EB49086008460068C8280CD30022802167
:1015A000E44804F06BFF0020E5490860E349087057
:1015B0000120E4490870E448007801281CD1E34880
:1015C0000068401CE14908600846006841F27071FB
:1015D000884211D300228021D64804F04FFF012019
:1015E000DB4908700020D9490860D7490870D949FB
:1015F00008700E2011F092F9D748007880B9D748CA
:101600000068401CD54908600846006847F2305120
:10161000884205D30120D04908700020CF490860D6
:10162000CD480078012806D114F008F918F048FADE
:101630000020C9490870CA48007818B1C948007824
:1016400001280DD1C8480068401CC74908600846F9
:10165000006840F6B831884202D30020C2490860D1
:10166000C2480068401CC14908600846006840F252
:10167000DD51884202D30020BC490860B848007898
:10168000A8B9BB480068401CB94908600846006812
:1016900096280CD300200860B6480078401CB54955
:1016A000087008460078062801DD01200870B2485D
:1016B000007850B9B1480068401CB049086008463D
:1016C0000068652801D300200860AD48006850B963
:1016D000AC480068401CAB490860084600680A280E
:1016E00001D300200860A848007878B90221A748F3
:1016F00004F0B2FE50B1A6480068401CA44908603E
:1017000008460068C92801D300200860A148007875
:10171000401CA0490870084600781E2801D100200E
:1017200008709D480078401C9B4908700846007866
:10173000022801D10020087098480078401C974981
:10174000087008460078032801D1002008709448EA
:101750000078401C9249087008460078042801D19E
:10176000002008708F480078401C8E490870084699
:101770000078052801DB002008708B480078401CA9
:101780008949087008460078C92801DB00200870E4
:1017900086480068401C854908600846006840F695
:1017A000B931884202D10120804908608048007820
:1017B000401C7F49087008460078332801D100207A
:1017C00008707C4800684AF6C971884202D100203E
:1017D000784908607848007820B978480068401C4B
:1017E000764908607548006840F6A171884202D1C8
:1017F00000207249086072480068401C7049086007
:10180000084600683D2801D100200860554800784E
:10181000012804D16B480068401C6A4908606A4886
:101820000078012804D169480068401C67490860B5
:1018300067486849096850F82100401C63490968F5
:10184000884202D10020614908605F480078022880
:1018500008D161480078012804D160480068401C24
:101860005E4908605D48006840F22D11884202D14F
:1018700000205A4908605A480078012812D10221F4
:10188000424804F0E9FD68B956480068401C5549D3
:1018900008600846006840F2DD51884202D300200B
:1018A000504908604E480078022812D1022137487A
:1018B00004F0D2FD68B14C480068401C4A490860F9
:1018C000084600684AF6C971884202D1002046499C
:1018D000086046480068401C444908604448006865
:1018E000401C4349086043480068401C4149086067
:1018F00041480078012804D140480068401C3F4915
:1019000008603F480078012804D13E480068401C28
:101910003C4908603C480078012804D13B480068F5
:10192000401C3A49086073E0502D0020A82A00208E
:10193000BC2A0020001001405C2B0020AA2A0020B5
:101940000C2D0020502B0020A92A0020B82A0020AE
:10195000FD2A0020F13500205F2D0020C02A002044
:10196000492C00200F2B0020182D0020042D0020D2
:10197000102D0020670100205E2D00203C2D00204E
:101980004C2D0020482D00201D2B0020001401406C
:10199000402D0020FF2C0020FE2C0020FD2C0020DC
:1019A000FA2C0020FB2C0020022D0020082D002006
:1019B000FC2C00201C2D00205C2D0020202D002060
:1019C000242D0020282D0020542D0020582C0020EC
:1019D000F0B30108382E0020692D00202C2D0020A6
:1019E000642B0020342D0020302D0020903000206A
:1019F00094300020482F0020092B0020D42C0020F8
:101A0000082B0020D82C00200A2B0020E02C0020DE
:101A100015480078012804D114480068401C134977
:101A2000086013480078012804D112480068401C5F
:101A30001049086010480078012809D102210F4898
:101A400004F00AFD20B100200B4908700C49087011
:101A50000C480068401C0B49086008460068C8280C
:101A600001D3C820086010BD612F0020642F002022
:101A7000D92E0020682F0020D82E0020001401400D
:101A8000582B0020842F00202DE9FC477A4800784D
:101A900001286FD14FF0000AE3E00221774804F0FB
:101AA000DBFC18B90020764941F82A00744850F848
:101AB0002A00734951F82A104843724941F82A0014
:101AC000084650F82A007049096888420AD96F48C8
:101AD00050F82A006B4951F82A1008446B4941F824
:101AE0002A0024E0674951F82A00FFF7D1F806469A
:101AF0000022674BFEF7CCFF04460D46634951F8C0
:101B00002A00FFF7B4F8804622462B46FEF7BAFFBC
:101B1000CDE90001FFF7F6F85C4941F82A000846D4
:101B200050F82A00002802DA002041F82A0057481D
:101B300050F82A0057490968884248D35548006838
:101B400051490968A0EB8100504941F82A00002062
:101B500041F82A0050480078002842D10BF0AAFE34
:101B6000BAF1000F07D14D49086814F09FFB4C49AA
:101B7000086013E079E0BAF1010F06D147494868DF
:101B800014F038FC4649086008E0BAF1020F05D1AC
:101B90004249886814F0D2FC414908600CF04EFFBD
:101BA00001204049087005203F4908700AF10100F2
:101BB0003E490870801D3E4908703E480078012863
:101BC00006D100203C49087001203349087044E0E8
:101BD00003203149087001203849087036490870DF
:101BE0003BE02D480078022837D103202A490870AD
:101BF0000120314908700BF05DFEBAF1000F06D1EB
:101C00002649086814F052FB2549086012E0BAF131
:101C1000010F06D12149486814F0ECFB2049086007
:101C200008E0BAF1020F05D11C49886814F086FC5F
:101C30001B4908600CF002FF01201A4908700520BA
:101C4000194908700AF101001849087001201B4960
:101C500008700AF10700164908700AF1010000F047
:101C6000FF0ABAF1030FFFF618AF0B4800781449CA
:101C70000870BDE8FC870000E12A00200014014044
:101C80005C52002014530020742D00200C510020C1
:101C90000000E03F782D0020642B0020AC52002093
:101CA000E82C0020C1350020E22E0020362E002036
:101CB000802B0020622B0020812B0020652B002030
:101CC000F32A00202DE9F0478AB08246BAF1050FC9
:101CD0007ED2DFE81AF005004401CC02FA03690560
:101CE000FE48007800EB8000322101EB4000FC4907
:101CF0000860084600683C2801D13F200860F84889
:101D00000068822802D17D20F5490860F5480078F6
:101D10004000801CF24909684843F3490860F348D1
:101D200000784000001DEE4909684843F04908600A
:101D3000EB480068FEF7ACFF80468946E84800683B
:101D4000FEF7A6FF06464FF06632EA4BFEF7A0FE0E
:101D500042464B46CDE90001FEF79AFE0446FEF7E7
:101D6000F0FFE5490860DE4800684FF48C71484395
:101D7000DB4909684843E149E14A1278895CC91C9A
:101D80004843E0490860DA480068DF490860D848FD
:101D90000068DE490860D4480068DD4908603120E9
:101DA000DC49087032204870352088702020487146
:101DB0000871C870A023022202A94FF4215002F03A
:101DC00009FD9DF808009DF8091000EB012000E0D6
:101DD0004CE2D1490880A023022202A942F6600009
:101DE00002F0F8FC9DF808009DF8091000EB0120B6
:101DF000CA490860A023022202A942F6B00002F0FC
:101E0000E9FC9DF808009DF8091000EB0120C44989
:101E10000880A023022202A942F6B20002F0DAFCF6
:101E20009DF808009DF8091000EB0120BD490880CD
:101E3000A023022202A942F6B40002F0CBFC9DF8D6
:101E400008009DF8091000EB0120B7490880A02385
:101E5000022202A942F6B60002F0BCFC9DF808007E
:101E60009DF8091000EB0120AD494880A023022213
:101E700002A942F6B80002F0ADFC9DF808009DF8FA
:101E8000091000EB0120A7494880A023022202A9E3
:101E900042F6BA0002F09EFC9DF808009DF8091079
:101EA00000EB0120A0494880A023022202A942F6AB
:101EB000BC0002F08FFC9DF808009DF8091000EBB3
:101EC00001209A490860A023022202A942F6BE001E
:101ED00002F080FC9DF808009DF8091000EB01203D
:101EE00093490860A023022202A94FF4235002F074
:101EF00071FC9DF808009DF8091000EB01208D4948
:101F00000860A023022202A942F6C20002F062FC8D
:101F10009DF808009DF8091000EB012083494860F6
:101F2000A023022202A942F6C40002F053FC9DF84D
:101F300008009DF8091000EB01207D494860A023AE
:101F4000022202A942F6C60002F044FC9DF80800F5
:101F50009DF8091000EB01207649486086E15F4852
:101F6000007800EB80003C2101EB40005C490860F8
:101F7000084600683C2801D13F2008605948007895
:101F80004000801C56490968484357490860574833
:101F900000784000001D52490968484354490860D0
:101FA0004F480068FEF774FE06460F464C4800682E
:101FB000FEF76EFE4FF066324E4BCDE90001FEF7A4
:101FC00067FD804632463B46FEF762FD0446FEF75B
:101FD000B8FE49490860424800684FF49B71484385
:101FE0003F49096848434549454A1278895C491C7C
:101FF0004843444908603E480068434908603C48FB
:102000000068B0F57A7F0BD239480068C0EBC00099
:10201000C0083749096800EB51103C49086015E0D9
:1020200033480068A0F57A704FF4617101EB9001BC
:102030002F480068A0F57A7001EB10112C48006859
:10204000A0F57A7001EB501030490860264800680E
:102050002F49086032202F49087035204870302001
:102060008870202048710871C870A023022202A93C
:102070004FF4215002F0AEFB9DF808009DF80910C6
:1020800000EB012024490880A023022202A942F685
:10209000600002F09FFB9DF808009DF8091000EB1E
:1020A00001201E490860A023022202A942F648002E
:1020B00002F090FB9DF808009DF8091000EB01204C
:1020C00017490880A023022202A942F64A0002F022
:1020D00081FB9DF808009DF809102DE0702D00206F
:1020E000AC2A0020722D0020B02A0020732D002081
:1020F000B42A00206666F23F742D0020A83100202B
:10210000AE2D0020782D00203C2C0020402C0020FB
:10211000382C0020C02F0020782B0020942C002089
:10212000782A00207C2A0020802A00206C51002080
:10213000805100209451002000EB0120FE490880CE
:10214000A023022202A942F64C0002F043FB9DF8B4
:1021500008009DF8091000EB0120F8490880A02331
:10216000022202A942F64E0002F034FB9DF808005C
:102170009DF8091000EB0120F1494880A0230222BC
:1021800002A942F6500002F025FB9DF808009DF8D8
:10219000091000EB0120E8494880A023022202A98F
:1021A00042F6520002F016FB9DF808009DF8091057
:1021B00000EB0120E1494880A023022202A942F657
:1021C000540002F007FB9DF808009DF8091000EB91
:1021D0000120DC490860A023022202A942F6560031
:1021E00002F0F8FA9DF808009DF8091000EB0120B4
:1021F000D5490860A023022202A942F6580002F045
:10220000E9FA9DF808009DF8091000EB0120CF497C
:102210000860A023022202A942F65A0002F0DAFA6C
:102220009DF808009DF8091000EB0120C5494860A1
:10223000A023022202A942F65C0002F0CBFA9DF82C
:1022400008009DF8091000EB0120BF494860A02359
:10225000022202A942F65E0002F0BCFA9DF80800D4
:102260009DF8091000EB0120B8494860FAE3B8482E
:10227000007800EB8000A02101EB8000B5490860E8
:10228000B54800784000801C09684843B34908609D
:10229000B34800784000001DAE4909684843B14981
:1022A0000860AC480068FEF7F3FC04460D46A948F8
:1022B0000068FEF7EDFC80464FF06632AA4BFEF751
:1022C000E7FB064622462B46FEF7E2FBCDE900017E
:1022D000FEF737FDA54908609E48006840F263118B
:1022E00048439C4909684843A149A24A1278895C3D
:1022F000891C4843A04908609A4800689F490860C3
:10230000984800689E490860944800689D490860A4
:1023100034209D4908703020487088702020487112
:102320000871C870A023022202A942F6CA0002F076
:1023300051FA9DF808009DF8091000EB012093491F
:102340000880A023022202A942F6D20002F042FA3B
:102350009DF808009DF8091000EB01208C490860E9
:10236000A023022202A942F6680002F033FA9DF887
:1023700008009DF8091000EB012071490880A02396
:10238000022202A942F66A0002F024FA9DF808002F
:102390009DF8091000EB012067490880A023022264
:1023A00002A942F66C0002F015FA9DF808009DF8AB
:1023B000091000EB012061490880A023022202A934
:1023C00042F66E0002F006FA9DF808009DF809102A
:1023D00000EB01205A494880A023022202A942F6BC
:1023E000700002F0F7F99DF808009DF8091000EB65
:1023F000012051494880A023022202A942F672001E
:1024000002F0E8F99DF808009DF8091000EB0120A2
:102410004A494880A023022202A942F6740002F031
:10242000D9F99DF808009DF8091000EB01204549F5
:102430000860A023022202A942F6760002F0CAF93F
:102440009DF808009DF8091000EB01203E49086046
:10245000A023022202A942F6780002F0BBF99DF8FF
:1024600008009DF8091000EB012038490860A023FE
:10247000022202A942F67A0002F0ACF99DF80800A7
:102480009DF8091000EB01202E494860A02302228C
:1024900002A942F67C0002F09DF99DF808009DF823
:1024A000091000EB012028494860A023022202A95C
:1024B00042F67E0002F08EF99DF808009DF80910A2
:1024C00000EB012021494860CCE221480078C0EBB4
:1024D0000010DC2101EB40001E490860084600683E
:1024E000FA2801D1FC2008601A480068B0F5207F66
:1024F00003D140F276201749086017480078400061
:10250000801C14490968484314490860144800783D
:102510004000001D0F4909684843124908600D48F2
:102520000068FEF7B5FB04460D460A480068FEF752
:10253000AFFB06462EE000007C2A0020802A002007
:10254000782A00206C5100208051002094510020F6
:10255000702D0020AC2A0020722D0020B02A00200F
:10256000732D0020B42A00206666F23F742D0020EF
:10257000A8310020AE2D0020782D00203C2C00201A
:10258000402C0020382C0020C02F0020782B002069
:10259000942C00204FF06632FE4BFEF779FA22466B
:1025A0002B46CDE90001FEF773FA8046FEF7C9FB22
:1025B000F9490860F94800684FF4AA714843F7499F
:1025C00009684843F649F74A1278895C891C4843F0
:1025D000F5490860F5480068F5490860F348006867
:1025E000F4490860F4480068F44908603620F4496A
:1025F000087033204870302088702020487108719E
:10260000C870A023022202A942F6CC0002F0E2F830
:102610009DF808009DF8091000EB0120E9490880A9
:10262000A023022202A942F6D40002F0D3F89DF8BA
:1026300008009DF8091000EB0120E3490860A02381
:10264000022202A94FF4225002F0C4F89DF80800BB
:102650009DF8091000EB0120DC490880A02302222C
:1026600002A942F6820002F0B5F89DF808009DF834
:10267000091000EB0120D6490880A023022202A9FC
:1026800042F6840002F0A6F89DF808009DF80910B3
:1026900000EB0120CF490880A023022202A942F6C4
:1026A000860002F097F89DF808009DF8091000EBED
:1026B0000120C6494880A023022202A942F68800D0
:1026C00002F088F89DF808009DF8091000EB012041
:1026D000BF494880A023022202A942F68A0002F0E4
:1026E00079F89DF808009DF8091000EB0120B94920
:1026F0004880A023022202A942F68C0002F06AF868
:102700009DF808009DF8091000EB0120B24908600F
:10271000A023022202A942F68E0002F05BF89DF887
:1027200008009DF8091000EB0120AC490860A023C7
:10273000022202A942F6900002F04CF89DF808002F
:102740009DF8091000EB0120A5490860A023022292
:1027500002A942F6920002F03DF89DF808009DF8AB
:10276000091000EB01209C494860A023022202A925
:1027700042F6940002F02EF89DF808009DF809102A
:1027800000EB012095494860A023022202A942F6ED
:10279000960002F01FF89DF808009DF8091000EB64
:1027A00001208F4948605DE18E48007800EB800091
:1027B0004FF4A07101EB0010784908608A48007856
:1027C0004000801C096848437B49086087480078BE
:1027D0004000001D714909684843744908606F480A
:1027E0000068FEF755FA04460D466C480068FEF78F
:1027F0004FFA80464FF06632664BFEF749F90646BF
:1028000022462B46FEF744F9CDE90001FEF799FA7E
:1028100061490860614800684FF49B7148435F4913
:10282000096848435E495F4A1278895C491C4843FD
:102830005D4908605D4800685D4908605B48006864
:102840005C4908605C4800685C49086038205C4965
:102850000870302048708870202048710871C87056
:10286000A023022202A942F6CE0001F0B3FF9DF898
:1028700008009DF8091000EB012052490880A023B0
:10288000022202A942F6D60001F0A4FF9DF808003A
:102890009DF8091000EB01204B490860A02302229B
:1028A00002A942F6980001F095FF9DF808009DF8F6
:1028B000091000EB012045490880A023022202A94B
:1028C00042F69A0001F086FF9DF808009DF8091075
:1028D00000EB01203E490880A023022202A942F613
:1028E0009C0001F077FF9DF808009DF8091000EBAF
:1028F000012038490880A023022202A942F69E0046
:1029000001F068FF9DF808009DF8091000EB012018
:102910002E494880A023022202A942F6A00001F01D
:1029200059FF9DF808009DF8091000EB0120284987
:102930004880A023022202A942F6A20001F04AFF29
:102940009DF808009DF8091000EB012021494880FE
:10295000A023022202A942F6A40001F03BFF9DF849
:1029600008009DF8091000EB01201B490860A02316
:10297000022202A942F6A60001F02CFF9DF80800F1
:102980009DF8091000EB012014490860A0230222E1
:1029900002A92DE06666F23F742D0020AC2A0020CB
:1029A000A8310020AE2D0020782D0020B42A002070
:1029B0003C2C0020402C0020B02A0020382C002085
:1029C000C02F0020782B0020942C0020782A002093
:1029D0007C2A0020802A00206C5100208051002099
:1029E00094510020702D0020722D0020732D0020A6
:1029F00042F6A80001F0EEFE9DF808009DF80910CF
:102A000000EB012019490860A023022202A942F626
:102A1000AA0001F0DFFE9DF808009DF8091000EB08
:102A2000012013494860A023022202A942F6AC000B
:102A300001F0D0FE9DF808009DF8091000EB012080
:102A40000C494860A023022202A942F6AE0001F020
:102A5000C1FE9DF808009DF8091000EB0120034914
:102A6000486000BF00BF0AB0BDE8F0879451002065
:102A70006C5100208051002005283DD2DFE800F095
:102A8000030E1A25310038211C4A11703021517073
:102A90009170202151711171D1702DE03221174AAE
:102AA00011703521517030219170202151711171B7
:102AB000D17021E03421114A117030215170917090
:102AC000202151711171D17016E036210B4A11701D
:102AD0003321517030219170202151711171D170C9
:102AE0000AE03821054A117030215170917020217F
:102AF00051711171D17000BF00BF7047C02F00200D
:102B000010B52C4800783F2809DC2B4800780128B4
:102B100005D102F0EDFB02F0FFFB02F011FC2548AD
:102B20000078401C2349087008460078102808D116
:102B30002148007828B901201F49087000201D494C
:102B400008701C480078402833DB1C4800681C498A
:102B500008601C48006848601B480068886000F0F6
:102B6000DFFF01F073F901F003FB00201149087049
:102B70001249086013490860134908601348007837
:102B8000401C1249087008460078642811D10020C2
:102B90000F4908600F4908600F4908600F49086035
:102BA0000F4908600F4908600849087001200E4964
:102BB000087010BDF42C0020BC350020582E0020D9
:102BC000FC5200205C2E0020602E002040310020AE
:102BD0008C2D0020882D0020902D0020982D002085
:102BE000942D00209C2D00204131002010B506F0CE
:102BF000ADF94648007801287ED1454800780A287A
:102C0000FAD14449086813F051FB4349086041492F
:102C1000486813F0EFFB404948603E49886813F06C
:102C20008DFC3D4988603D4800683A490968884202
:102C300003D2384800683949086039480068354986
:102C40000968884203D93348006835490860334829
:102C5000406830494968884203D22E4840682F496D
:102C600048602F4840682B494968884203D9294861
:102C700040682B494860294880682649896888420D
:102C800003D2244880682549886025488068214906
:102C90008968884203D91F48806821498860214893
:102CA0000068401C1F4908600846006840F2F511A2
:102CB000884219D100201B4908601B490978491C2A
:102CC000C8B206F045F918490978491CC8B206F09F
:102CD0005FF915480078401C1349087008460078D1
:102CE000032801DB0020087010480078012806D175
:102CF0000F490870002000E006E00C490870002031
:102D000003490870FEF7C0FE10BD00001C2B002018
:102D10005D2B0020AC5200205C5200207C5600202D
:102D2000D4300020142D0020F6300020FC2A002092
:102D3000162B0020F8B505466B48007878BB0024B8
:102D400011E004EB840040000F30A84209D8601C59
:102D500000EB800040000E30A84202D363480470AC
:102D600003E0601CC4B2092CEBDB00BF0F2D02D2C4
:102D700000205E490870C22D02D908205B49087006
:102D80005A4800788DF80000A0230122694642F2DB
:102D90002B7007F085FA54480078FEF793FF5248ED
:102DA000007801282FD1002411E004EB84004000BA
:102DB0003730A84209D8601C00EB80004000363054
:102DC000A84202D34948047003E0601CC4B2142C2A
:102DD000EBDB00BF372D02D2002044490870FE2DE6
:102DE00002D9132041490870404800788DF800004E
:102DF000A0230122694642F22B7007F051FA3A48AB
:102E00000078FEF75FFF38480078022832D10024AE
:102E100013E004EB8400800000F1C307601C00EBAA
:102E20008000800000F1C206BD4204D3B54202D842
:102E30002E48047003E0601CC4B20B2CE9DB00BF19
:102E4000C22D02D2002029490870B5F5CA7F02D9E7
:102E50000A2026490870254800788DF80000A02334
:102E60000122694642F22B7007F01AFA1E480078D8
:102E7000FEF728FF1C480078032833D1002413E014
:102E8000C4EB0410400000F1C307601CC0EB00104D
:102E9000400000F1C206BD4204D3B54202D8134837
:102EA000047003E0601CC4B2102CE9DB00BFCD2D20
:102EB00002D200200D49087040F27A20854202D9E2
:102EC0000F200A490870094800788DF80000A023F7
:102ED0000122694642F22B7007F0E2F902480078BD
:102EE000FEF7F0FEF8BD0000712D0020702D0020CF
:102EF00070B5002504E0002031494855681CC5B272
:102F0000032DF8DB2F48007868B92F48007800EBD4
:102F1000C00101EB0010C82101EB8004032221460F
:102F2000274801F061FB2748007801280ED1264888
:102F3000007800EBC00101EB00104FF4167101EBBB
:102F40008004032221461E4801F04EFB1D480078F4
:102F500002280ED11C48007800EBC00101EB0010E4
:102F60004FF4FA6101EBC00403222146144801F03A
:102F70003BFB1448007803280ED113480078C0EBBF
:102F8000001000EB800040F6340101EB80040322C6
:102F900021460B4801F028FB0A48007804280ED18E
:102FA0000948007800EBC00101EB00104FF44861C4
:102FB00001EB401403222146014801F015FB70BDCE
:102FC00074300020712D0020702D002000B587B0D6
:102FD000002006900D2005F0E1FC400BFE49486002
:102FE0000E2005F0DBFC400BFB4988600F2005F04C
:102FF000D5FC400BF849C86008464068F7490860AE
:10300000F54880684860F448C0688860F2484068C5
:10301000F3490860F04880684860EF48C0688860FD
:10302000102005F0BBFC400B0190FDF731FE0022A3
:10303000EC4BCDE90201FDF79DFDCDE90401FDF763
:1030400061FEE5490861112005F0A8FC400B0190E4
:10305000FDF71EFE0022E34BCDE90201FDF78AFDDC
:10306000CDE90401FDF74EFEDB494861122005F071
:1030700095FC400B0190FDF70BFE0022D94BCDE9EA
:103080000201FDF777FDCDE90401FDF73BFED249D2
:103090008861012005F082FC06900698B0F5000FCB
:1030A00005DB0698A0F18070CB49C86102E0CA49EF
:1030B0000698C861C848C0690190FDF7D8FDCA4AA2
:1030C000CA4BCDE90201FDF7E3FCCDE90401FDF7B0
:1030D00019FEC149C8610846C069C017C4490870D3
:1030E000BD48C0690590002801DB059801E00598FE
:1030F0004042B949C861022005F050FC069006988C
:10310000B0F5000F05DB0698A0F18070B2490862A7
:1031100002E0B14906980862AF48006A0190FDF7E5
:10312000A6FDB14AB14BCDE90201FDF7B1FCCDE9F5
:103130000401FDF7E7FDA84908620846006AC017C8
:10314000AB494870A448006A0590002801DB059847
:1031500001E005984042A0490862032005F01EFCEA
:1031600006900698B0F5000F05DB0698A0F1807078
:103170009949486202E09849069848629648406A30
:103180000190FDF774FD984A984BCDE90201FDF7D7
:103190007FFCCDE90401FDF7B5FD8F494862084683
:1031A000406AC017924988708B48406A0590002891
:1031B00001DB059801E005984042874948620420F8
:1031C00005F0ECFB06900698B0F5000F05DB0698BD
:1031D000A0F180708049886202E07F490698886289
:1031E0007D48806A0190FDF742FD7F4A814BCDE921
:1031F0000201FDF74DFCCDE90401FDF783FD7649A1
:1032000088620846806AC0177949C8707248806A27
:103210000590002801DB059801E0059840426E49C1
:103220008862142005F0BAFB06900698B0F5000FEE
:1032300012DB0698A0F180700190FDF718FD6A4A34
:103240006D4BCDE90201FDF795FCCDE90401FDF7D9
:1032500059FD6149C8620EE00698FDF708FD624A13
:10326000654BCDE90201FDF785FCCDE90401FDF7D1
:1032700049FD5949C8625848C06AC0175C4908727C
:103280005548C06A0590002801DB059801E00598C3
:1032900040425149C862152005F080FB069006980F
:1032A000B0F5000F12DB0698A0F180700190FDF7D9
:1032B000DEFC4D4A504BCDE90201FDF75BFCCDE948
:1032C0000401FDF71FFD444908630EE00698FDF771
:1032D000CEFC454A484BCDE90201FDF74BFCCDE958
:1032E0000401FDF70FFD3C4908633B48006BC01724
:1032F0003F4948723848006B0590002801DB05986B
:1033000001E00598404234490863162005F046FB69
:1033100006900698B0F5000F12DB0698A0F18070B9
:103320000190FDF7A4FC304A334BCDE90201FDF7D3
:1033300021FCCDE90401FDF7E5FC274948630EE0D7
:103340000698FDF794FC284A2B4BCDE90201FDF7C6
:1033500011FCCDE90401FDF7D5FC1F4948631E4867
:10336000406BC017224988721B48406B05900028AB
:1033700001DB059801E00598404217494863172092
:1033800005F00CFB06900698B0F5000F12DB0698CE
:10339000A0F180700190FDF76AFC134A164BCDE94D
:1033A0000201FDF7E7FBCDE90401FDF7ABFC0A499B
:1033B00088630EE00698FDF75AFC0B4A0E4BCDE9E8
:1033C0000201FDF7D7FBCDE90401FDF79BFC0249A3
:1033D00088630148806B11E0E4560020C85000204B
:1033E000A450002000000C40FCA9F1D24D62A03F87
:1033F000D85600204D62B03F4D62C040C017FE4914
:10340000C872FE48806B0590002801DB059801E03A
:1034100005984042F94988631E2005F0BFFA0190E3
:10342000FDF736FC4FF03332F54BCDE90201FDF7E5
:10343000A1FBCDE90401FDF765FCF049C8631F203D
:1034400005F0ACFA0190FDF723FC4FF03332EC4B62
:10345000CDE90201FDF78EFBCDE90401FDF752FC39
:10346000E6490864202005F099FA0190FDF710FC68
:103470004FF03332E24BCDE90201FDF77BFBCDE9A2
:103480000401FDF73FFCDD494864212005F086FA80
:103490000190FDF7FDFB4FF03332D94BCDE902012E
:1034A000FDF768FBCDE90401FDF72CFCD3498864E6
:1034B000222005F073FA0190FDF7EAFB4FF033325A
:1034C000CF4BCDE90201FDF755FBCDE90401FDF736
:1034D00019FCCA49C866232005F060FA0190FDF77F
:1034E000D7FB4FF03332C64BCDE90201FDF742FB6B
:1034F000CDE90401FDF706FCC0490867242005F06A
:103500004DFA0190FDF7C4FB4FF03332BC4BCDE9CF
:103510000201FDF72FFBCDE90401FDF7F3FBB749ED
:103520004867252005F03AFA0190FDF7B1FB4FF00E
:103530003332B34BCDE90201FDF71CFBCDE90401A9
:10354000FDF7E0FBAD4988670846806FAD49096823
:103550000844AD490860052005F020FA0690069859
:10356000B0F5000F05DB0698A0F18070A349C86490
:1035700002E0A2490698C864A048C06C0190FDF71B
:1035800076FBA24AA24BCDE90201FDF781FACDE913
:103590000401FDF7B7FB9949C8640846C06CC01721
:1035A000954908719548C06C0590002801DB059885
:1035B00001E0059840429149C864062005F0EEF903
:1035C00006900698B0F5000F05DB0698A0F1807014
:1035D0008A49086502E08949069808658748006DB0
:1035E0000190FDF744FB894A894BCDE90201FDF7C3
:1035F0004FFACDE90401FDF785FB804908650846CF
:10360000006DC0177C4948717C48006D059000280A
:1036100001DB059801E005984042784908650720DC
:1036200005F0BCF906900698B0F5000F05DB06988A
:10363000A0F180707149486502E0704906984865BC
:103640006E48406D0190FDF712FB704A704BCDE95A
:103650000201FDF71DFACDE90401FDF753FB6749AF
:1036600048650846406DC017634988716348406DDE
:103670000590002801DB059801E0059840425F496C
:103680004865082005F08AF906900698B0F5000F05
:1036900005DB0698A0F180705849886502E057491B
:1036A000069888655548806D0190FDF7E0FA574A05
:1036B000584BCDE90201FDF7EBF9CDE90401FDF727
:1036C00021FB4E4988650846806DC0174A49C8717C
:1036D0004A48806D0590002801DB059801E00598B7
:1036E000404246498865092005F058F90690069839
:1036F000B0F5000F05DB0698C0F180703F49C86542
:1037000002E03E490698C8653C48C06D0190FDF74F
:10371000AEFA3E4A3E4BCDE90201FDF7B9F9CDE9DB
:103720000401FDF7EFFA3549C8650A2005F036F9BE
:1037300006900698B0F5000F05DB0698C0F1807082
:103740002E49086602E02D49069808662B48006E4F
:103750000190FDF78CFA2D4A2D4BCDE90201FDF7C2
:1037600097F9CDE90401FDF7CDFA244908660B204D
:1037700005F014F906900698B0F5000F05DB0698E1
:10378000C0F180701D49486602E01C4906984866F1
:103790001A48406E0190FDF76AFA1C4A1C4BCDE9AD
:1037A0000201FDF775F9CDE90401FDF7ABFA134904
:1037B00048660C2005F0F2F806900698B0F5000F68
:1037C00005DB0698C0F180700C49886602E00B4961
:1037D000069888660948806E0190FDF748FA0B4A02
:1037E0000C4BCDE90201FDF753F9CDE90401FDF7DA
:1037F00089FA024988660FE0D8560020E456002076
:10380000333333408C35002088350020FCA9F1D2B9
:103810004D62A03F4D62B03F1C2005F0BFF800EBA9
:103820008000C0F312302D49C867172005F0B6F8A4
:103830002A49C1F88000352005F0B0F80190FDF765
:1038400027FA4FF03332264BCDE90201FDF792F90A
:10385000CDE90401FDF756FA2049C1F8840036206D
:1038600005F09CF80190FDF713FA4FF033321C4B32
:10387000CDE90201FDF77EF9CDE90401FDF742FA39
:103880001649C1F88800372005F088F80190FDF747
:10389000FFF94FF03332124BCDE90201FDF76AF91F
:1038A000CDE90401FDF72EFA0C49C1F88C0038204F
:1038B00005F074F80190FDF7EBF94FF03332084B47
:1038C000CDE90201FDF756F9CDE90401FDF71AFA39
:1038D0000249C1F8900007B000BD0000E456002086
:1038E0003333334010B50221784802F0B5FD00288B
:1038F0007ED07748007801286CD17649086812F0AC
:10390000BBF975490968884259D374480068801C1E
:10391000724908600846006803285BDB0020704994
:10392000087009F0C7FF6B49086812F0A5F96D49E6
:1039300008600BF083F816206B49087001206B4972
:1039400008706B4908706B49087007206A49087055
:103950006A480078012807D1694908700020604949
:1039600008706849087008E001205D49087003206C
:103970006349087001206349087061480078022893
:1039800028D101205649087040F2E73055490860B7
:1039900009F090FF0BF052F80120544908701620EE
:1039A0005149087001205349087003205449087098
:1039B00001205449087007204F4908700AE0474821
:1039C0000068401E4549086008460068002801DC80
:1039D000002008604C480078012875D14B484C49BC
:1039E000097850F821004B4908603A49086800E01E
:1039F0005EE012F05BFC48490968884259D34748A9
:103A00000068801C4549086008460068414909680B
:103A1000884259DB00203249087009F04BFF2D49DC
:103A2000086812F043FC2F4908600BF007F80620E5
:103A30002D49087001202D4908702E490870072073
:103A40002D4908702D480078012807D12C490870AD
:103A50000020234908702B49087008E00120204904
:103A60000870032026490870012026490870244860
:103A70000078022828D101201949087040F2E53069
:103A80001849086009F016FF0AF0D8FF012017490D
:103A90000870062014490870012016490870032098
:103AA000174908700120174908700720124908704B
:103AB0000AE01A480068401E184908600846006875
:103AC000002801DC0020086010BD00000014014047
:103AD000602B0020AC5200203C2C0020882D0020C0
:103AE000812B0020E82C0020E22E0020C135002090
:103AF000C0350020362E0020802B0020622B0020B5
:103B0000642B0020652B00205F2B0020742C0020EC
:103B1000AD2D00206C2C0020382C0020942D00208E
:103B200010B52D480078012823D12C49086812F0DF
:103B3000A3F82B49096888421BD32A480068801CD7
:103B40002849086008460068012812DB0020086048
:103B50001620254908700120244908701F4908686B
:103B600012F08AF82249086001222021214802F03F
:103B700085FC2148007801282DD12048204909786A
:103B800050F821001F4908601449086812F08EFBA4
:103B90001D49096888421ED31C480068801C1B49C7
:103BA00008600846006817490968884213DB00204E
:103BB0001649086006200C49087001200B4908705E
:103BC0000649086812F072FB0949086001222021A9
:103BD000084802F053FC10BD602B0020FC5200206E
:103BE0003C2C0020882D0020E22E0020362E0020C4
:103BF000E82C0020000801405F2B0020742C0020DE
:103C0000AD2D00206C2C0020382C0020942D00209D
:103C100010B50221794802F01FFC00287DD07848B9
:103C2000007801286BD17749486812F031F976495C
:103C30000968884258D375480068801C7349086039
:103C40000846006803285ADB00207149087009F013
:103C500031FE6C49486812F01BF96E4908600AF0A1
:103C6000EDFE16206C49087001206C490870022096
:103C70006B49087008206B4908706B480078012870
:103C800007D16A49087000206149087068490870C6
:103C900008E001205E490870032064490870012093
:103CA0006349087061480078022828D101205849EA
:103CB000087040F2E7305749086009F0FBFD0AF050
:103CC000BDFE012055490870162053490870022096
:103CD0005349087003205549087001205449087061
:103CE0000820504908700AE048480068401E4749CB
:103CF000086008460068002801DC002008604D4884
:103D00000078012879D14C484C49097850F82100B5
:103D10004B4908603B49486800E062E012F06AFBEA
:103D20004849096888425DD347480068801C464975
:103D30000860084600684249096888425DDB3B48E4
:103D4000007818BB00203249087009F0B3FD2D49F6
:103D5000486812F04FFB2F4908600AF06FFE0620FA
:103D60002D49087001202D49087002202C49087047
:103D700008202C4908702C480078012807D12B49CD
:103D800008700020224908702949087008E00120C5
:103D90001F49087003202549087001202449087034
:103DA00022480078022828D101201949087040F2E1
:103DB000E5301849086009F07DFD0AF03FFE01205A
:103DC000164908700620144908700220144908702A
:103DD0000320164908700120154908700820114970
:103DE00008700AE018480068401E17490860084635
:103DF0000068002801DC0020086010BD00140140AC
:103E0000602B0020AC5200203C2C00208C2D002088
:103E1000812B0020E82C0020E22E0020C13500205C
:103E2000362E0020802B0020622B0020642B0020E7
:103E3000652B00205F2B0020742C0020AD2D00206E
:103E40006C2C0020382C0020982D002010B52D4817
:103E50000078012823D12C49486812F019F82B4921
:103E6000096888421BD32A480068801C28490860DA
:103E700008460068012812DB00200860162025494A
:103E800008700220244908701F49486812F000F8A1
:103E90002249086001222021214802F0EFFA21483E
:103EA000007801282DD120482049097850F82100B8
:103EB0001F4908601449486812F09CFA1D490968B6
:103EC00088421ED31C480068801C1B4908600846B5
:103ED000006817490968884213DB0020164908600A
:103EE00006200C49087002200B49087006494868F2
:103EF00012F080FA0949086001222021084802F0E6
:103F0000BDFA10BD602B0020FC5200203C2C00208C
:103F10008C2D0020E22E0020362E0020E82C0020E0
:103F2000000801405F2B0020742C0020AD2D0020E4
:103F30006C2C0020382C0020982D002010B5022178
:103F4000774802F089FA00287ED076480078012868
:103F50006AD17549886812F09DF8744909688842E9
:103F600057D373480068801C714908600846006890
:103F7000032859DB00206F49087009F09BFC6A494F
:103F8000886812F087F86C4908600AF057FD16201F
:103F90006A49087001206A4908700320694908705D
:103FA00009206949087069480078012807D16849E3
:103FB000087000205F4908706649087008E0012019
:103FC0005C4908700320624908700120614908704B
:103FD0005F480078022827D101205649087040F236
:103FE000E7305549086009F065FC0AF027FD01201B
:103FF0005349087016205149087003205149087030
:104000005349087001205349087009204E4908702F
:104010000AE047480068401E4549086008460068B5
:10402000002801DC002008604B480078012875D189
:104030004A484B49097850F821004A4908603A49F2
:10404000886812F07BFA00E05CE047490968884222
:1040500059D346480068801C4449086008460068F7
:1040600040490968884259DB00203249087009F04C
:1040700021FC2D49886812F061FA2F4908600AF086
:10408000DDFC06202D49087001202D490870032011
:104090002C49087009202C4908702C480078012808
:1040A00007D12B490870002022490870294908705F
:1040B00008E001201F4908700320254908700120ED
:1040C0002449087022480078022827D10120194984
:1040D000087040F2E5301849086009F0EBFB0AF07F
:1040E000ADFC012016490870062014490870032011
:1040F00014490870164908700120164908700920F3
:10410000114908700AE019480068801E17490860C4
:1041100008460068002801DC0020086010BD00008F
:1041200000140140602B0020AC5200203C2C0020E9
:10413000902D0020812B0020E82C0020E22E002072
:10414000C1350020362E0020802B0020622B00205D
:10415000642B0020652B00205F2B0020742C002096
:10416000AD2D00206C2C0020382C00209C2D002030
:1041700010B52D480078012823D12C49886811F00A
:1041800089FF2B49096888421BD32A480068801C94
:104190002849086008460068012812DB00200860F2
:1041A0001620254908700420244908701F49886892
:1041B00011F070FF2249086001222021214802F0FD
:1041C0005DF92148007801282DD12048204909783F
:1041D00050F821001F4908601449886812F0AEF9B0
:1041E0001D49096888421ED31C480068801C1B4971
:1041F00008600846006817490968884213DB0020F8
:104200001649086006200C49087004200B49087004
:104210000649886812F092F90949086001222021B4
:10422000084802F02BF910BD602B0020FC52002042
:104230003C2C0020902D0020E22E0020362E002065
:10424000E82C0020000801405F2B0020742C002087
:10425000AD2D00206C2C0020382C00209C2D00203F
:1042600010B5024801F0F8FC10BD000030CE00206F
:1042700030B590F840500124AC40C56B6C600468C8
:1042800063604468102C04D10468A2600468E16093
:1042900003E00468A1600468E26030BD00B587B047
:1042A00004F054FEA0230122694642F21B7000F084
:1042B00091FA9DF8000067490870A0230122694621
:1042C00042F60A0000F086FA9DF800006249087084
:1042D000A0230522614942F2227000F07BFA11F01E
:1042E00063FBA0230122694642F6100000F072FA37
:1042F0009DF800005A49087008460078012815D139
:104300000020584908705548C07800F0FC00534917
:10431000C870A0230122C91C42F2257005F0C0FF1D
:1043200011F042FB00204E49087002E000204C4989
:104330000870A02301224A4942F6100005F0B0FFA0
:10434000A0230122694642F22B7000F043FA9DF847
:10435000000045490870A0230122694642F60B007F
:1043600000F038FA9DF8000040490870A0230122AF
:10437000694642F60C0000F02DFA9DF800003C4919
:104380000870A0230122694642F60D0000F022FACF
:104390009DF8000037490870A0230122694642F6C3
:1043A0000E0000F017FA9DF8000033490870084627
:1043B0000078072801DD00200870A023012269464B
:1043C00042F2277000F006FA9DF800002B490870B1
:1043D00008460078042801DD00200870274800788E
:1043E00030B921480078092802DB09201E490870ED
:1043F00022480078012806D11B480078132802DBE8
:104400001320194908701D480078022806D1164863
:1044100000780C2802DB0C2013490870174800783C
:10442000032806D1104800780E2802DB0E200E4922
:10443000087012480078042806D10B480078072835
:1044400002DB0620084908700C480078FDF73AFCAA
:1044500007B000BD5F2B0020602B0020392F00200B
:10446000EB2A0020DC2A0020702D0020722D002075
:10447000732D0020AD2D0020AE2D0020712D0020C9
:1044800000201C4908701C4908701C4908601C4920
:1044900008601C4800681C4908601C49086000202E
:1044A0001B498860486008601A4988604860086055
:1044B0004EF6602018498860486008601749886097
:1044C0004860086000201649C8608860486008603D
:1044D00014498860486008604EF660201249C86040
:1044E0008860486008601149C8608860486008605A
:1044F00070470000F6300020F5300020E830002042
:10450000F0300020C02D0020E4300020EC300020EE
:104510004456002050560020A4300020983000203F
:104520006C5600207C560020C4300020D43000207F
:1045300010B504F00BFD1F480078012839D1002088
:104540001C49087001221C491C4802F047FD012249
:104550001B491A4802F019FD1948C078194908602A
:10456000174840781849087015488078174908702E
:1045700015480078164908701448007815490870E5
:104580000846007814490978884205D11048007817
:104590001249097888420CD0FFF772FF0D48007865
:1045A0000D4908700A4800780C49087000200C4931
:1045B000087010BD0B2B0020B535002074CE0020F4
:1045C000B13500207001002061010020620100204F
:1045D000BF300020C1300020C2300020C030002099
:1045E000C22C0020704700002DE9F04F0346022A3C
:1045F00023D14FF47A70B1FBF0F0C7B24FF47A7068
:10460000B1FBF0FB00FB1B104FF0640BB0FBFBF0A9
:10461000C6B26420B1FBF0FB00FB1B104FF00A0B8D
:10462000B0FBFBF50A20B1FBF0FB00FB1B1404EB15
:104630000510187006EB07105870032A3AD14A4843
:10464000B1FBF0F000F0FF084748B1FBF0FB00FBC6
:104650001B1042F2107BB0FBFBF000F0FF0C584641
:10466000B1FBF0FB00FB1B104FF47A7BB0FBFBF0BF
:10467000C7B25846B1FBF0FB00FB1B104FF0640BB8
:10468000B0FBFBF0C6B26420B1FBF0FB00FB1B10DB
:104690004FF00A0BB0FBFBF50A20B1FBF0FB00FB6F
:1046A0001B1404EB0510187006EB071058700CEB88
:1046B00008109870042A53D12C48B1FBF0F000F098
:1046C000FF0A2A48B1FBF0FB00FB1B10DFF8A0B08B
:1046D000B0FBFBF000F0FF095846B1FBF0FB00FB1C
:1046E0001B10DFF884B0B0FBFBF000F0FF08584669
:1046F000B1FBF0FB00FB1B1042F2107BB0FBFBF0A8
:1047000000F0FF0C5846B1FBF0FB00FB1B104FF410
:104710007A7BB0FBFBF0C7B25846B1FBF0FB00FB65
:104720001B104FF0640BB0FBFBF0C6B26420B1FB72
:10473000F0FB00FB1B104FF00A0BB0FBFBF50A204F
:10474000B1FBF0FB00FB1B1404EB0510187006EB2B
:10475000071058700CEB081098700AEB0910D8700D
:104760000020BDE8F08F0000A08601008096980030
:1047700040420F0070B504460D46164600224FF425
:104780008071134801F07AFE1CE004F073FB3046A0
:1047900004F03CFB04F0AEFBC4F3072004F036FB4E
:1047A00004F0A8FBE0B204F031FB04F0A3FBFF200F
:1047B00004F02CFB04F09EFB04F07CFB022011F0C3
:1047C00077FF641C281EA5F10105DED170BD000035
:1047D000000C01402DE9F04105460C46164698466E
:1047E00000224FF48071094801F048FE002709E0DB
:1047F00029466D1C88B24146FCF72DFD2070641CD3
:10480000781CC7B2B742F3DBBDE8F081000C014071
:1048100070B50546002601200CF0E4FE0120174982
:10482000487208468572002405E01448005D304453
:10483000C6B2601CC4B20B2CF7DB1048C67216203F
:104840000E490873002404E0FE200D490855601C41
:10485000C4B2042CF8DB0B48007801280DD14FF6C8
:10486000FF7304220649084803F0DAFE4FF6FF738F
:104870000D220249044803F0D3FE70BD24530020EA
:1048800060530020C22C0020CCD100202DE9F84339
:1048900000208DF800008DF801008DF802008DF8E1
:1048A0000300A0230422694642F60C7005F0F8FCD0
:1048B000A0230422694642F6107005F0F1FCA02303
:1048C0000422694642F6147005F0EAFCA023042293
:1048D000694642F6187005F0E3FC0020364908608E
:1048E000364908603649086036490860364908602C
:1048F0003649086036490860364908605A21C9209F
:1049000004F0B8F84FF68401032004F0B3F85B21FB
:10491000C62004F0AFF80A2011F0CAFE1E2004F0F1
:104920003DF88146FCF7B4F906462B4A2B4BFCF7C1
:1049300021F90446FCF7E6F98046202004F02EF821
:104940008146FCF7A5F90646234A244BFCF712F9E9
:104950000446FCF7D7F98046212004F01FF8814671
:10496000FCF796F906461C4A1C4BFCF703F9044673
:10497000FCF7C8F91A498864252004F00FF881462D
:10498000FCF786F90646144A144BFCF7F3F8044684
:10499000FCF7B8F980460A2011F08AFE4FF60401B0
:1049A000032004F067F85B21C92004F063F80120BC
:1049B00011F07EFEBDE8F883743500207C350020C0
:1049C000843500208C35002070350020783500209B
:1049D00080350020883500209A9999999999094045
:1049E000E456002072B600BFFEE7000070B586B046
:1049F0000024FB480078FF2821D1FA480078FF28DE
:104A00001DD1F9480078FF2819D1F8480078FF280F
:104A100015D10124F6480068401CF54908600322BE
:104A20000846016801A8FFF7DFFDA023032201A9C2
:104A300042F2337005F034FC002006B070BDE84847
:104A4000007803280AD1E7480078812806D1E64893
:104A5000007818B9E5480078FF2801D0012C62D110
:104A600000208DF805008DF80400A023022201A982
:104A700042F2367005F014FC00208DF805008DF828
:104A80000400A023022201A942F2387005F008FCBC
:104A900000208DF805008DF80400A023022201A952
:104AA00042F23A7005F0FCFB00208DF805008DF80D
:104AB0000400A023022201A942F23C7005F0F0FBA1
:104AC00000208DF805008DF80400A023022201A922
:104AD00042F23E7005F0E4FB00208DF805008DF8F1
:104AE0000400A023022201A94FF41D5005F0D8FBB9
:104AF00000208DF805008DF80400A023022201A9F2
:104B000042F2427005F0CCFB00208DF805008DF8D4
:104B10000400A023022201A942F2447005F0C0FB68
:104B20000CB9002089E7AE48007803280AD1AD48C7
:104B30000078822806D1AC48007818B9AB480078D4
:104B4000FF2801D0012C06D14FF4AD754FF49076BB
:104B50000CB9002071E7A248007803280BD1A148C6
:104B60000078822807D1A0480078012803D19F4807
:104B70000078FF2801D0012C06D140F27A254FF4AD
:104B800090760CB9002058E79548007803280BD19F
:104B900094480078822807D193480078022803D1EE
:104BA00092480078FF2801D0012C06D140F29A35B6
:104BB0004FF490760CB900203FE78948007803282D
:104BC0000BD188480078822807D1874800780328CD
:104BD00003D186480078FF2801D0012C06D140F28D
:104BE000BA454FF490760CB9002026E77C4800784F
:104BF00003280BD17B480078822807D17A480078B7
:104C0000042803D179480078FF2801D0012C06D16F
:104C100040F2DA554FF490760CB900200DE7704859
:104C2000007803280BD16F480078822807D16E489E
:104C30000078052803D16D480078FF2801D0012CA9
:104C400006D140F2FA654FF490760CB90020F4E6F4
:104C50006348007803280BD162480078822807D186
:104C600061480078062803D160480078FF2801D009
:104C7000012C06D140F61A054FF490760CB90020AD
:104C8000DBE65748007803280AD156480078832885
:104C900006D15548007818B954480078FF2801D04B
:104CA000012C06D140F63A154FF490760CB900204D
:104CB000C3E64B48007803280BD14A480078832884
:104CC00007D149480078012803D148480078FF28D7
:104CD00001D0012C06D140F65A254FF490760CB93C
:104CE0000020AAE63E48007803280BD13D48007812
:104CF000832807D13C480078022803D13B4800783C
:104D0000FF2801D0012C06D140F67A354FF4907679
:104D10000CB9002091E63248007803280BD13148C5
:104D20000078832807D130480078032803D12F4822
:104D30000078FF2801D0012C06D140F69A454FF4A7
:104D400090760CB9002078E62548007803280BD12E
:104D500024480078832807D123480078042803D109
:104D600022480078FF2801D0012C06D140F6BA5520
:104D70004FF490760CB900205FE6194800780328BC
:104D80000BD118480078832807D1174800780528E8
:104D900003D116480078FF2801D0012C06D140F637
:104DA000DA654FF490760CB9002046E60C4800789E
:104DB00003280BD10B480078832807D10A480078D4
:104DC000062803D109480078FF2801D0012C11D111
:104DD00040F6FA754FF4907664B900202DE6000095
:104DE0009B3600209A360020993600209836002005
:104DF000E42E00202E48007803280AD12D480078A0
:104E0000882806D12C48007818B92C480078FF284B
:104E100001D0012C05D141F21A1596260CB90020BB
:104E20000BE62348007803280AD1224800788D2811
:104E300006D12148007818B920480078FF2801D011
:104E4000012C06D141F2B0154FF482760CB9002046
:104E5000F3E51748007803280AD1164800788E2811
:104E600006D11548007818B914480078FF2801D0F9
:104E7000012C05D141F2B425FA260CB90020DCE55D
:104E80000B48007803280AD10A4800788F2806D1F9
:104E90000948007818B909480078FF2801D0012C8A
:104EA00004D141F2AE3578260020C6E50120C4E5E4
:104EB0009B3600209A360020993600209836002034
:104EC00010B5C748006840F2DC51884202D1012089
:104ED000C4490870C4480078072808D1C34800684E
:104EE00040F6B731884202D10020C1490870BE485F
:104EF0000078072808D1BF480078142804D1012081
:104F0000BD490870BD490870B7480078102808D11D
:104F1000BB480078322804D10120BA490870BA4948
:104F20000870B148007810280AD1B848006840F6E7
:104F3000B831884204D10120B5490870B5490870DC
:104F4000A9480078142806D1AD480078322802D14B
:104F50000120B1490870A4480078082805D1AF485D
:104F60000078012801D1AE4908709F4800782328B5
:104F700009D1AC480078042805D10A20AA49087054
:104F80000120AA49087098480078232806D1A8482B
:104F90000078C82802D10A20A649087092480078F3
:104FA000272806D1A4480068642802D10120A3491B
:104FB00008708D48007828280BD1A1480068C828BF
:104FC00007D102219F4801F047FA10B101209E4904
:104FD00008708548007829280AD19C4800680A286A
:104FE00006D39A4800680A21B0FBF1F0984908609E
:104FF0007D480078042806D1964800683C2802D1F4
:1050000001209549087078480078052808D1934810
:10501000006840F6C411884202D10120904908700E
:1050200071480078062811D18E488F49096850F8D8
:1050300021008E490968884208D102208C490870F5
:1050400000208A49086001208A4908706648007873
:1050500007280BD188480068B0F5967F06D100205C
:105060008349087080490860834908605E48007879
:1050700009280DD181480068B0F57A7F08D1022057
:105080007F49087000207D49086001207D49087033
:10509000554800780A280AD17B4800684AF6C8714A
:1050A000884204D1002078490860754908704E484C
:1050B00000780C280BD1754800687549096888424A
:1050C00005D10020714908600120724908704648E6
:1050D00000780D2809D170480068FA2805D1002011
:1050E0006D49086001206D4908703F4800780E281E
:1050F0000BD16B48006840F6B831884205D10020DA
:1051000067490860012067490870374800780F2810
:1051100016D16548006865490968884210D164481D
:10512000007801280CD10020614908705E490860B0
:105130000221444801F090F910B101205D49087046
:1051400029480078102816D15B4800685B49096837
:10515000884210D15A48007801280CD100205849C3
:105160000870554908600221364801F075F910B9F8
:105170000120544908701C480078112811D1524868
:1051800000685249096888420BD1514800780128CB
:1051900007D100204E4908704B49086001204D4955
:1051A00008701148007812280CD14B480068B0F5FF
:1051B000FA7F07D100204949087049490870012049
:1051C0004849087008480078132808D14648006804
:1051D00040F2EE21884202D101204449087010BDFE
:1051E000502D00209C350020D42E0020182D0020AA
:1051F000492C0020FF2C00201C2B0020112B00200C
:10520000FC2C00201A2B0020212B0020082D002030
:10521000202B0020242B0020B8310020FE2C002061
:10522000182B0020FB2C0020192B0020252B002000
:10523000022D00201E2B00203C2D00205E2D002082
:10524000402D0020001401401D2B0020482D00207F
:105250004C2D0020242D00205D2D0020282D002025
:10526000C42A0020F0B30108382E0020582C00205A
:10527000542D0020662D00202C2D0020342D0020E0
:10528000642B0020672D0020302D0020903000205E
:105290008C300020132B0020943000200B2B00209A
:1052A000482F00202B2F0020D42C0020D02C0020B1
:1052B000092B0020042B0020D82C0020CC2C00200F
:1052C000082B0020032B0020E02C0020DC2C0020E9
:1052D0000A2B0020052B0020642F0020612F0020C6
:1052E000DC2A0020C52A0020682F00200C2B00207B
:1052F00000200649086006484068086005480068C4
:105300000968084403490860704700003C2E0020EB
:10531000AC560020582E00200020064908600648A0
:105320008068086005480068096808440349086007
:10533000704700003C2E0020AC5600205C2E002060
:105340000020064908600648806908600548006832
:105350000968084403490860704700003C2E00209B
:10536000AC560020602E0020002006490860064848
:10537000C069086005480068096808440349086076
:10538000704700003C2E0020AC560020442E002028
:1053900010B5044611480460114800780F490968A7
:1053A0000844142807D20E4800780C4909680844BC
:1053B0000C49086007E00A48007808490968084471
:1053C0001438084908600749096801EBC100A023A7
:1053D00009220549FFF7FEF910BD0000C8010020B1
:1053E000282F0020C4010020B04B0020F8B504464F
:1053F00000260020009000BF94F82400012801D16D
:105400000220F8BD012084F8240000BF2046FBF7ED
:1054100032FE06462046FBF79BFE0646002E69D16B
:10542000A06A20F4885040F00200A062022001F03F
:1054300009F934490968B1FBF0F04000009002E03E
:105440000098401E009000980028F9D120688068DC
:1054500040F008002168886001F016F8054616E063
:1054600001F012F8401B0A2811D92068806800F06A
:10547000080060B1A06A20F0020040F01000A062B5
:1054800000BF002084F8240000BF0120B9E7206895
:10549000806800F008000028E2D12068806840F0B1
:1054A00004002168886000F0EFFF054616E000F078
:1054B000EBFF401B0A2811D92068806800F0040027
:1054C00060B1A06A20F0020040F01000A06200BFAE
:1054D000002084F8240000BF012092E72068806843
:1054E00000F004000028E2D1A06A20F0020040F0A1
:1054F0000100A06200BF002084F8240000BF3046F5
:105500007FE70000504B002038B502460023002002
:10551000009000BF92F82400012801D1022038BD7C
:10552000012082F8240000BF4868072812D21068C2
:10553000406B0C79641E04EB84051F24AC40A0432F
:105540000D796D1E05EB85050C68AC402043146891
:10555000606327E048680D2812D21068006B0C7950
:10556000E41F04EB84051F24AC40A0430D79ED1F1C
:1055700005EB85050C68AC4020431468206311E0FE
:105580001068C06A0C790D3C04EB84051F24AC4004
:10559000A0430D790D3D05EB85050C68AC4020431B
:1055A0001468E06208680A2812D31068C0680C7892
:1055B0000A3C04EB44050724AC40A0430D780A3DA7
:1055C00005EB45058C68AC4020431468E0600FE0B3
:1055D000106800690C7804EB44050724AC40A04334
:1055E0000D7805EB45058C68AC40204314682061BC
:1055F0000868102802D00868112827D1174C1068B5
:10560000A0421ED11068806800F40000F0B9106854
:10561000806840F400001468A0600868102815D164
:105620000F4800680F4CB0FBF4F000EB8000400026
:10563000009002E00098401E009000980028F9D1E8
:1056400004E0906A40F020009062012300BF002037
:1056500082F8240000BF184661E7000000240140E2
:10566000504B002040420F007047704770470000C9
:105670002DE9F0410446002700250026A84614B96C
:105680000120BDE8F081A06810B1207D00B100BF0D
:10569000A06A30B90020E06284F82400204600F0BF
:1056A00097F82046FBF7E7FC0746A06A00F01000D9
:1056B000002873D1002F7ED1A06A20F4885040F0DA
:1056C0000200A0623F4AD4E90001904208D1E0699B
:1056D000B0F5402F02D14FF4002002E0E06900E075
:1056E000E0690143207B41EA40000643A068B0F531
:1056F000807F02D0A068012802D14FF4807000E0C2
:1057000000200543207D012811D1207B38B9A069F4
:10571000401E4FF4006141EA4030054307E0A06AB3
:1057200040F02000A062E06A40F00100E0622068E2
:10573000406820F4694028432168486020688068F8
:1057400021490840304321688860A068B0F5807F17
:1057500002D0A068012802D14FF4807000E0002040
:10576000B0F5807F03D1208A401E4FEA00582068A0
:10577000C06A20F4700040EA08002168C86220680E
:10578000806812490840B04209D10020E062A06A56
:1057900020F0020040F00100A06211E00BE0A06ADE
:1057A00020F0020040F01000A062E06A40F001002A
:1057B000E062012704E0A06A40F01000A062012727
:1057C00038465EE7003C0140FDF7E1FFFE0E1FFF9B
:1057D00010B586B004460020029003900490059016
:1057E00036492068884267D100BF3548806940F457
:1057F0000070334988610846806900F400700190A8
:1058000000BF00BF00BF0846806940F010008861FB
:105810000846806900F01000019000BF00BF00BF83
:105820000846806940F0040088610846806900F0FD
:105830000400019000BF00BF00BF0846806940F02F
:10584000080088610846806900F00800019000BFE8
:1058500000BF372002900320039002A9194800F0EE
:105860005BFC402002900320039002A9164800F040
:1058700053FC03200290039002A9144800F04CFC52
:1058800013481449086000204860002111488160D5
:105890008021C1608900016189004161202181610D
:1058A0000902C16100F0A4FB08B1FFF79BF800BF3B
:1058B00008482062446200BF06B010BD00240140C9
:1058C000001002400010014000080140000C01409F
:1058D0000800024030CE00202DE9F04104460D467C
:1058E0001646002757492068884203D05649206849
:1058F000884205D15348001D006800F4702000E084
:10590000002000287ED100BF94F82400012802D195
:105910000220BDE8F081012084F8240000BF204669
:10592000FBF716FC0746002F6DD1A06A40F6016117
:10593000884340F48070A06243492068884209D1BE
:105940004048001D006800F4702008B9012002E002
:10595000002000E0012078B1A06A20F48010A0624D
:105960002068406800F4806000B3A06A20F4005012
:1059700040F48050A06219E0A06A40F48010A06258
:1059800030492068884203D02F492068884205D1D9
:105990002C48001D006800F4806000E0002028B161
:1059A000A06A20F4005040F48050A062A06A00F485
:1059B000805020B1E06A20F00600E06201E00020A3
:1059C000E06200BF002084F8240000BF1F48216A65
:1059D00088621F48216AC8621E48216A08636FF006
:1059E0000200216808602068806840F480702168A7
:1059F0008860226802F14C0133462A46206A00F092
:105A00003DFB01E01AE014E02068806800F46020AB
:105A1000B0F5602F06D12068806840F4A0002168AE
:105A200088600CE02068806840F4801021688860FD
:105A300005E000BF002084F8240000E0012738467C
:105A400067E700000024014000280140D31000084F
:105A500043110008251100080146002291F8210099
:105A6000022808D00420886300BF002081F82000AD
:105A700000BF012070470868006820F00E000B6826
:105A800018600868006820F001000B68186091F841
:105A9000403001209840CB6B5860012081F82100F4
:105AA00000BF002081F8200000BF1046E2E70000A0
:105AB00070B50446002594F82100022803D0042084
:105AC000A0630125C1E02068006820F00E00216875
:105AD00008602068006820F00100216808605C49C7
