:020000040800F2
:10000000405E0020C10100086D5B00083F4D000804
:1000100000000000000000000000000000000000E0
:10002000000000000000000000000000855D0008E6
:100030000000000000000000A55B0008875D0008CC
:10004000D301000800000000D3010008D30100081C
:10005000D3010008D3010008D3010008D301000830
:1000600000000000292F0008D3010008D301000878
:10007000D30100081D5E0008D30100080000000045
:10008000D3010008D3010008D3010008D301000800
:10009000D3010008D3010008D3010008D3010008F0
:1000A000D3010008D3010008D3010008716B0008D8
:1000B000D3010008D301000800F002F800F054F862
:1000C0000CA030C8083824182D18A246671EAB466D
:1000D00054465D46AC4201D100F046F87E460F3EE4
:1000E0000FCCB6460126334200D0FB1AA246AB46DF
:1000F00033431847DCD40000FCD400000023002464
:1001000000250026103A01D378C1FBD8520700D34E
:1001100030C100D50B60704710B5662902D10CF0D4
:1001200057FD10BD642902D100F0BEF910BD73293E
:1001300002D101F017FA10BD002010BD1FB50098C4
:10014000019900F034FF01F039FB04000020002188
:100150000CF028FB401C6060002000210CF00CFB20
:10016000E0601FBD10B510BD01F0A3FF1146FFF701
:10017000E5FF08F013FA02F05BFA03B4FFF7F2FFB1
:1001800003BC02F0FFFA000070B505460C461646A7
:1001900002E00FCC0FC5103E102EFAD2082E02D36B
:1001A00003CC03C5083E042E07D301CC01C5361F7E
:1001B00003E021782970641C6D1C761EF9D270BD95
:1001C0000748804707480047FEE7FEE7FEE7FEE7EF
:1001D000FEE7FEE704480549054A064B7047000064
:1001E000195E0008B900000840580020405E002059
:1001F000405A0020405A002070B5064600F0B6FE76
:10020000056830460B30C408E400B44201D8002031
:1002100070BD68682A46002818D00168A14211D331
:100220000B46214608318B4208D3436801194B60C5
:1002300003681B1B0B605160046001E04168516062
:10024000001D70BD024640680028E6D121462846C0
:1002500000F098FE0028DCD170BD70B50446051F83
:1002600000F084FE0068002C1AD0446801E02046AB
:100270006468002C01D0AC42F9D301680A18AA4284
:1002800004D12A6805468918016000E045602868A5
:100290004119A14205D16168696021684018286050
:1002A00070BD6C6070BDFEB5054610460C46184327
:1002B00073D0AE468C460020AD1A01469C4167D3F0
:1002C0006646002701243D46B61A9D4102D31346D7
:1002D0003A462124654676462F04360C3E432D0CC3
:1002E000B61A9D4104D3150C1B042B431204103481
:1002F000654676462F06360A3E432D0AB61A9D41BC
:1003000004D3150E1B022B431202083465467646B1
:100310002F0736093E432D09B61A9D4104D3150F08
:100320001B012B431201241D65467646AF07B60814
:100330003E43AD08B61A9D4104D3950F9B002B4355
:100340009200A41C65467646EF0776083E436D088A
:10035000B61A9D411AD392185B41641C16E000182E
:10036000764665464941B71A9D410191009009D3EF
:100370006046B11A98418E4684460098019900253E
:10038000401C6941DD0752082A435B08641EE6D51C
:100390007246634603B0F0BDFFE700200146C04649
:1003A000C0462A462346F5E70FB41CB5074B06AAFC
:1003B0007B4469460090059801F0A1F80020694649
:1003C00001F0B0F81CBC08BC04B018477111000063
:1003D0000FB41CB50C0007AA009001D00019401EF4
:1003E000084B7B4469460190069801F088F8002C80
:1003F00003D06946002001F095F81CBC08BC04B08D
:10040000184700004911000070B50446856900686E
:10041000C10601D5302600E02026C00707D070BDF8
:1004200062683046A1689047206A401C20626D1EB9
:10043000F6D570BD70B5044685690078C00707D150
:1004400070BD6268A16820209047206A401C20622D
:100450006D1EF6D570BD70B50C460546012A05D057
:100460002878800600D5EA69002302E0012305E030
:100470005B1C934202D2E05C0028F9D1A869E6181F
:10048000C01AA861286AC01828622846FFF7BCFF76
:1004900004E06A682078A968641C9047B442F8D3E5
:1004A0002846FFF7C7FF70BDF7B50025752910680E
:1004B000009914A611D0C046C046002802DA404276
:1004C00011A608E0009909688A0701D50FA602E085
:1004D000490704D50EA6012501E0C046C046009F8D
:1004E0000024243704E001F0CFF830313955641C82
:1004F0000028F8D12B4632462146009800F096FDA0
:10050000FEBD0000000000002D0000002B000000D8
:1005100020000000F3B50446002081B02062204690
:10052000E168884700287DD0252802D06268A1684C
:1005300083E0454F00257F442046E1688847202816
:10054000064608DB312E06D2B8192038007800287C
:1005500001D00543F0E7A80701D50420854300201A
:10056000E0610746A0612A2E0AD0304606F018FD49
:10057000002827D0B8000019303E0090866119E0AD
:100580000298BA00121902C8916102902046E168EF
:100590008847012F064617D1E06900281FDA20207E
:1005A00085431CE000980A2180694843009980191E
:1005B000303888612046E1688847064606F0F0FC3E
:1005C0000028EFD1012F0AD02E2E08D12046E16855
:1005D00088470646202005437F1C022FC3DBA06905
:1005E000002803DA4042A06101200543E80701D05A
:1005F00010208543002E24D030464138192803D8D6
:100600000120C00205432036204625603146029A6B
:100610001546FFF781FD00280CD0012807D0ED1DFD
:10062000E80800E00DE0C0000830029077E72D1DDB
:10063000029574E762683046A1689047206A401CC2
:100640006CE7206AFEBD000002CB000070B50646D4
:1006500000F090FC0468054630460A22002100F0B4
:10066000DBFF2C6070BD0000034670B502460B43F3
:100670009B070FD10E4CE60100E008C208C91D1B04
:100680009D433542F9D0D9B21170521C00290DD0CA
:100690001B0AF8E70B78491C1370521C002B05D07D
:1006A0000B78491C1370521C002BF3D170BD000055
:1006B0000101010130B5441C03E00178401C002910
:1006C0000DD08107F9D10B4BDD0104C8D11A91433C
:1006D0002940FAD0001B0A0603D0C01E30BD001B03
:1006E00030BD0A0401D0801E30BD0902FCD0401E7E
:1006F00030BD00000101010101E004C0091F04290F
:10070000FBD28B0701D50280801CC90700D0027084
:10071000704700290BD0C30702D00270401C491E4D
:10072000022904D3830702D50280801C891EE3E7D7
:100730000022EEE70022DFE7002203098B422CD3E0
:10074000030A8B4211D300239C464EE003460B4321
:100750003CD4002243088B4231D303098B421CD383
:10076000030A8B4201D394463FE0C3098B4201D375
:10077000CB01C01A524183098B4201D38B01C01AAD
:10078000524143098B4201D34B01C01A5241030924
:100790008B4201D30B01C01A5241C3088B4201D3D3
:1007A000CB00C01A524183088B4201D38B00C01A80
:1007B000524143088B4201D34B00C01A5241411AA7
:1007C00000D201465241104670475DE0CA0F00D08A
:1007D0004942031000D34042534000229C46030983
:1007E0008B422DD3030A8B4212D3FC22890112BA09
:1007F000030A8B420CD3890192118B4208D38901E1
:1008000092118B4204D389013AD0921100E08909F8
:10081000C3098B4201D3CB01C01A524183098B42D9
:1008200001D38B01C01A524143098B4201D34B01C2
:10083000C01A524103098B4201D30B01C01A524125
:10084000C3088B4201D3CB00C01A524183088B42AC
:1008500001D38B00C01A5241D9D243088B4201D335
:100860004B00C01A5241411A00D201466346524120
:100870005B10104601D34042002B00D5494270471F
:1008800063465B1000D3404201B50020C046C0461D
:1008900002BD704770477047F0B5F94D0C091E094D
:1008A0002C402E402F468BB0A7437DD0B543FCD0C3
:1008B000002E7AD0002CFCD00D465D40ED0F254374
:1008C000AC1BFF25AD0464190894C502440DC90290
:1008D0002143500DDC0204430120C00701430443BF
:1008E000D2020191200C110C00958C460104234684
:1008F0008B430A9161460904E24D8A430991010A3A
:100900007D4449198039097805464D4301266D1803
:10091000F605751B6943C90C640B891C4C436418AC
:10092000B5012C1B250C2E04B4434C434D43210C24
:10093000691889090591009DE90701D00121C907BE
:1009400004912C4601996708CD072F434C08059D5B
:10095000E10B4D432D0C29466646754302950D4625
:1009600045432E46029D7D1BB44100950D465D43D7
:1009700001942C0C2F040D465543AE462D0C3D43DF
:10098000029503947546049C2D04641B049406D2BE
:10099000029C039D641C002675410395029401ACE2
:1009A00070CC009F7D1B01E03EE162E1B44109048F
:1009B0000095079101940599A4086143090C0C4620
:1009C0004443650BE7040C4666467443A646640B35
:1009D0003C43039502947446049DE4042C1B049448
:1009E00006D2029C039D641C002675410395029467
:1009F00001AC70CC009F7D1BB44101940C465C435C
:100A00000095650FE7000C465443A646640F3C432F
:100A1000039502947446049DE4002C1B049406D2B2
:100A2000029C039D641C002675410395029401AC51
:100A300070CC009F7D1BB441AE09AF06049DC90078
:100A4000AD092F43049DA406AD060495079D3443CC
:100A500069180791059DE10B4D432D0C294666460B
:100A6000754302950D4645432E46029D7D1BB441BC
:100A700000950D465D4301942C0C2F040D46554303
:100A8000AE462D0C3D43029503947546049C2D04FF
:100A9000641B049406D2029C039D641C00267541CD
:100AA0000395029401AC70CC009F7D1BB44101946E
:100AB0008C050694079C890A611800950791019C92
:100AC0000599A4086143090C0D464543680BEF04E2
:100AD0000D46644665436C0B3C43049FED047D1B4F
:100AE000AC4602D20025641C6841009E019D371B64
:100AF00085410846584301950C46460FC5005443AE
:100B0000600F28436546E4002C1B02D20025401CE0
:100B10006E41019D3F1AB5412846BD098006284314
:100B20008446A009BF064E020699A406761807431C
:100B3000079D002068410A99079019430020099BEE
:100B400000906046FF1913434041E20F64003A43AE
:100B5000A4460446D71A8C41A04203D90120009034
:100B600020463A46C70F941840416246D20F2243AE
:100B7000644664000494009CBE466400D71AA446F0
:100B8000044602978C417746002F01D1A04204D938
:100B90006046401C8446029A2046C40FA64694181C
:100BA0004041049A0546D20F224364466400D31A9A
:100BB0008D417146002901D1A84202D928461A4622
:100BC000641C10430122002800D01643610200205B
:100BD000079B891904465C410223002C02DB49185B
:100BE00013466441089DCE0A2D145D194B05670517
:100BF000E10A2C050D1908993E43C9076940002BED
:100C000008D0934006D30022761C5141002B01D11D
:100C1000760876001C4A002D43DB154241D0AA43DA
:100C20003FD030460BB0F0BD06180D464D41174C75
:100C30007642AC411AD395181C465C41134A6D426A
:100C4000A24113D3012252054C00D4420AD15C00C8
:100C5000D4420BD04B4002D592021143E2E7490047
:100C60004908DFE75940C90FC90718E000200849C3
:100C7000D8E7054801420DD10342F7D0F2E7000062
:100C80000000FF0749C700000000F07F0000E0FF00
:100C90000000F87F114859400143C0124140002034
:100CA000C0E70123089A9B069A4205DC03225207FB
:100CB0008918C90FC907B5E7052252078918074ADD
:100CC0001143D2125140ADE770B515461C4602469D
:100CD0000B4628462146FFF7DFFD70BDFFFFFF7F73
:100CE0001F22030C02D10F22000402D0030E03D0F6
:100CF00004E00020014670470002083A030F01D1CA
:100D00000001121F830F01D18000921E002801DB19
:100D10004000521E120551184205C01241181046DB
:100D20007047C10FC90700D040420122920711430A
:100D3000D6E701218907D3E7F0B5FF252D04C609C1
:100D4000C209FF2704462E400137CB093E434840E5
:100D50002A402B400746002A6BD0002B69D0AA42BC
:100D600067D0AB4265D0002800DA32460125ED0598
:100D700029432C4309022002090AD21A4B0C7F2472
:100D8000E31A434C000A7C44E35C7D2424041219DA
:100D900014145B00A218884201D3521C00E04000EA
:100DA00049420C465C4324115C43DB016415E318A3
:100DB000040A5C43C502200D0C4644436419250A0D
:100DC0005D432303EC0C0D46654300030019EB184B
:100DD0004C42A34201D35B18401CD4052018002BC1
:100DE00007D05B00C91804D3401C002901D140087A
:100DF00040003F2189048A4209D3002A08DC1106F9
:100E0000090F04D0032149074018C00FC007F0BDE7
:100E100001224100120689187F2252069142F6D221
:100E200005214907C84201D59010F0BDFF20C0053B
:100E3000F0BD002F00DA32461648AA4207D2AB4274
:100E400005D21902090E17D0F80FC007F0BDFF2513
:100E500063002D06AB42F9D84900A942F6D8AB424F
:100E600001D1A942F2D0A94201D1002101E06100E3
:100E70004908D0050843F0BD1102090EFBD0FF2040
:100E80000243D005F0BD0A460146104654E7000073
:100E900043C300000000C07F0102C21504D001233B
:100EA000DB071943002A0ADB9E239A1A02D408465C
:100EB000D0407047FF2241001206914201D9002024
:100EC0007047C017C04370471F22030C02D10F2286
:100ED00000041CD0030E01D10002083A030F01D117
:100EE0000001121F830F01D18000921E002801DB38
:100EF0004000521ED205511802125118192290407A
:100F000004D3491C002801D149084900084670470C
:100F1000C10FC90700D04042012292071143D3E715
:100F200001218907D0E7000010B5FF22C30D13404F
:100F300009D05A4007D0914205DA5C42A14202DD55
:100F4000C905081810BDC40FE407002B06D0002AFD
:100F500006D0002902DBFF20C0050443204610BD57
:100F60004102FCD0004810BD0000C07F004870471F
:100F7000E857002000487047E0570020704770474E
:100F80007047704738B504460A4600206946C04697
:100F9000C046002805D002462046009900F012FC09
:100FA000012038BD10B5012001F052F810BDF8B590
:100FB000C046C046054600200C461020C0460646E6
:100FC000A819A0420DD9324669460020C046C04645
:100FD000070001D101F03CF80098A04200D005467E
:100FE000C419FFF7C3FFF61D07460560F008C000EF
:100FF0004619284600F008F8B44204D03146386853
:10100000A21B00F0DFFBF8BD0021016041608060A1
:1010100070471020704710B5FFF7ACFF006810BD97
:1010200010B50446FFF7A6FF046010BDFFB50446E7
:101030000D4681B0243000902168880604D5102226
:10104000E0699143216000E00120A84201DD471BD7
:1010500000E000270498A1697A191018081AA06105
:101060002078C00602D42046FFF7CEF9002608E01B
:1010700003986268A168805D9047206A401C761CD6
:10108000206204988642F3DB2078C0060AD5204609
:10109000FFF7BAF906E06268A16830209047206A3D
:1010A000401C206238467F1E0028F4DC07E00098D0
:1010B0006268A168405D9047206A401C2062284613
:1010C0006D1E0028F3DC2046FFF7B4F920780006F7
:1010D00002D5022005B0F0BD0120FBE77047FFB547
:1010E0000C461E468FB003CA089009914F007D0D33
:1010F00000D16D1E002108460020C0460321099A38
:1011000089050840002A03DA820080184008084058
:10111000800D01280A9002DD0020C0430A90089843
:1011200007430DD0F048F149281848430714189890
:1011300000281DD07542291E1DDD0A9842421BE081
:101140001898012802D00020302104E00020F2434A
:1011500005E02154401CB042FBDB30460022189BC6
:10116000002121540F998B600A60486013B0F0BDD4
:10117000BD1B6D1CDFE70A9A002900DA69420BA843
:1011800000F03AFC0BAB07CB03AB07C308990998F7
:1011900000F09EFC6B4607C30146D5480918002D98
:1011A00000910BDDD24903980A9A49424018002366
:1011B00003A90390684600F0FBFE08E003990A9A31
:1011C0000023081803A90390684600F09BFE6B46B5
:1011D00007C30004000C03D00020C043410800E016
:1011E0001046189A002A03D00022009215461EE0ED
:1011F000751E05D400F000FB303262556D1EF9D526
:1012000001220843079602D000227F1C04E02078C8
:10121000302801D100227F1E002A069787D01EE0C9
:10122000112D07DA00F0E8FA303262556D1C0246E3
:101230000A43F5D1084303D00098002819D00EE0E6
:101240000021681E05E0235C625C63542254401E4A
:10125000491C8142F7DBA81B401E07950690079AA0
:1012600018990020A0540F98079B069A81600CC023
:101270007CE711260020189059E7D21DF0B50D46E5
:101280000446D10893B0C90003C90C900D9105F034
:10129000C5FD02460D98C00F01D02D2007E0206843
:1012A000810701D52B2002E04007C00F4001032A2F
:1012B0000F9001D0072A05DB03462946204600F09F
:1012C000E1FA0EE12078800601D5E76900E0062703
:1012D0002846652D04D0662814D0672D69D12DE0ED
:1012E0000020112F009001DB112300E07B1C0CAAD1
:1012F00003A910A8FFF7F3FE1199002610987D1C92
:101300000E9142E001203B460CAAC0070B90012041
:10131000009003A910A8FFF7E2FE119D1298109902
:10132000002600280E9501D1781C0D18781B02D4D8
:1013300046427D1C761EE81B00903AE0012F00DA41
:1013400001270020112F009001DD112300E03B4612
:101350000CAA03A910A8FFF7C2FE11993D461098E8
:1013600000260E91217809070BD40E99A94200DAC4
:101370000D4603A9012D04DD4A19203AD27F302AF7
:1013800006D0B84201DA011D04DA012100910FE014
:101390006D1EEFE7002802DC86192D1A03E0411CC0
:1013A000A94200DD0D46801B401C00900120C007B3
:1013B0000B902078000705D40098A84202DB00209B
:1013C000C043009069460020C8720B98012102AF0B
:1013D0000337C907884225D0022010902B20119096
:1013E0000B9800280BDA40420B902D20119006E05C
:1013F0000B9800F049F930317F1E0B90397010992D
:10140000481E00291090F3DC0B980028F0D11198A9
:101410007F1E38702088000501D5452000E065203A
:101420007F1E387001A8C01BC01D0B900F980028AC
:1014300000D0012041190098C01709180B9808180E
:10144000A169081A401EA0612078C00602D4204677
:10145000FEF7DAFF0F98002805D06268A168904770
:10146000206A401C20622078C00625D52046FEF761
:10147000CBFF21E0002E07DB0E98B04204DD03A86D
:101480006268805DA16802E06268A16830209047D0
:10149000206A761C401C20620098401E00280090A4
:1014A0000AD100F08BF9C06862680168405CA168ED
:1014B0009047206A401C206228466D1E0028D9DC17
:1014C00007E062683878A1687F1C9047206A401C5A
:1014D00020620B99481E00290B90F2DC2046FEF793
:1014E000A9FF032042E6000001FCFFFF104D0000B1
:1014F000E1DFFFFF01694A1C02610878704700B50F
:101500008FB002910021059105490193794403911F
:10151000114604906846FEF7FDFF0FB000BD0000C5
:10152000E5FFFFFF0A681070521C0A6070470CC983
:1015300008399A4202D2531C0B601070704710B5E4
:101540004369002B02D0C046C04601E0FEF783FF8E
:10155000012010BD1278014624310A7000224A7021
:101560000122ECE711680022D243E8E70FB4002320
:1015700000B589B00CA900910B99CB60224B7B443C
:10158000224A7A440792042206930192204A029248
:10159000204A7A446B460892024600200BF020FB5A
:1015A00009B008BC04B0184770B5064615460C468D
:1015B000324686B00020C04301900020049004A869
:1015C000009102916946FFF7D1FF02460498211865
:1015D000002D05D0002801D0084600E020462860F4
:1015E000049800280DD0002A02DD0098884208D017
:1015F0003246081B6946019004A800940294FFF744
:10160000B5FF06B070BD00008B030000A70300000B
:10161000FFFFFF7FDD020000F7B50F460026009CAC
:101620002578641C002D05D000F0C0F80068405DEE
:10163000C007F5D12B2D02D02D2D18D0641E3946B0
:10164000029A204600F084F9002F04D03968A142A4
:1016500001D1009939607105022400290BDA40425A
:10166000002803DDFFF786FC0460A007FEBD012013
:1016700080020643E3E70028F8DAFFF77BFC04600A
:101680000048FEBDFFFFFF7F01468008081A0209DF
:101690001018020A1018020C1018C0088200121844
:1016A0005200891A01E0401C0A390A29FBD270470E
:1016B000F8B5224C4E00069DA6420AD8A64201D19A
:1016C000002806D15E00A64203D8A6420AD1002A0D
:1016D00008D00D24240425422CD02946002000F0F7
:1016E000BDFCF8BD0C461C430CD4994202D0EFF36C
:1016F0000080F8BD904202D0EFF30080F8BDEFF318
:101700000080F8BD09242407E5008B4206D0EFF3E2
:101710000080A043591A06D2284304E0101A05D3CA
:10172000EFF30080A04380F30088F8BDEFF3008062
:10173000A043F1E7009500F0A9FCF8BD0000E0FF30
:1017400010B5FF231B0644009C421DD84C009C4250
:101750001AD80346124A0B4307D4401A02D3EFF3B8
:10176000008010BDEFF3008010BD081A06D2EFF321
:10177000008001219043C907084302E0EFF3008095
:10178000904380F3008810BD0D231B041A4204D03F
:101790001146002000F062FC10BD00F081FC10BD7D
:1017A0000000009000487047E057002010B500F09E
:1017B00005F8001D10BD00BFEDAF000000487047E8
:1017C0000058002010B50346406801E00346406819
:1017D000002801D08842F9D31868C3188B4206D07C
:1017E000CB1CD808C000001D411A521A0146081D22
:1017F0000A60FEF732FD10BD0B4670B50246890740
:101800008008084319469D08141AA94125090807AC
:10181000054308092C194841250A01060D43010A10
:101820002C194141200C0D0428430D0C00194D4189
:10183000002140194D41C00869070843E908840F99
:101840008D002543840024184D4124196D41121B3D
:10185000AB4107E00925ED432C11521963410024E7
:10186000401C61411C460A250026551BB441F1D29B
:1018700070BD10B50446FFF799FF0068005DC00712
:10188000C00F10BDF8B51F46044601230068DB02F7
:10189000032601461840072A05DB002801D017A5BA
:1018A00006E017A504E0002801D016A500E016A563
:1018B000102081432160A069C01E002FA06101D0CB
:1018C000401EA0612046FEF79FFD002F09D038463C
:1018D0006268A1689047206A401C2062C01C206298
:1018E00006E0206AFAE762682878A1686D1C9047D4
:1018F000761EF8D22046FEF79DFDF8BD4E414E0003
:101900006E616E00494E4600696E66004268002AAC
:1019100008D001680B78491C002B03D0521E06C06A
:10192000184670470121C160881E70474268002A2E
:101930000BD0C3680168002B07D183688B4204D0A9
:10194000491E521C06C0002070470020C04370474B
:10195000F7B5154682B00027029C2078641C0197D9
:10196000302802D0002D15D015E020780127641C06
:10197000782804D0582802D0002D09D00BE0002D83
:1019800001D0102D07D1207800271025641C02E01B
:10199000082500E00A250026009610E0009901279E
:1019A0006943081829467143020C80B200908E18D2
:1019B0003804864201D3012001902078641C294616
:1019C00000F096FB0028E9DA0398002805D0002FE4
:1019D00001D0641E00E0029C04600198002806D03B
:1019E000FFF7C8FA02210160C81E05B0F0BD0099DA
:1019F00030040843F9E70000F7B516468AB03348CB
:101A000078446C4603467C33C06F5A689B680DC4AB
:101A10002E487844763003AC0DC80DC43720C00181
:101A2000081837211B30FEF791FE05460C46803D15
:101A30001B3C02D56442012000E0002000270990F1
:101A400010E0E0070CD00C2020497843794432465E
:101A50004C3941186846012300F054FA6B4607C31D
:101A600064107F1C002CECD1184F7F442E3F16E0F1
:101A7000E80712D02001C0190EC8069108930792FA
:101A80000068F04201D1981908903246012306A956
:101A900003A800F037FA03AB07C36D10641C002DD8
:101AA000E6D10998002806D032466946012303A8EA
:101AB00000F07EFA05E001233246694603A800F0F3
:101AC00021FA0A9B07C30DB0F0BD00000CB700005F
:101AD000034640000A4610B5400D0BD00121C9074E
:101AE0000F24A40200191C0364082143540D214350
:101AF000D20207E000210120F2E7D40F4900214380
:101B00005200401E0029F8DADB0FDB07184310BD36
:101B1000FFB50D46144685B04868516805F058F980
:101B200000910190A868A16805F052F90291039014
:101B3000A868616805F04CF9029A12188242029274
:101B400001D2012000E00020019A0B18D2180028D1
:101B5000019202D08A4202D903E08A4201D20120D6
:101B600000E000200099081800906868A16805F05E
:101B70002FF9029A12188242029201D2012000E04B
:101B80000020019A0B18D2180028019202D08A4234
:101B900002D903E08A4201D2012000E0002000992E
:101BA000081800902868216840004900400849084A
:101BB0004018FA49471814E001994000C90F08433A
:101BC0000090019802994000C90F084301900298C3
:101BD00003994000C90F08430290039840007F1EFC
:101BE000039000980028E7DA0898002801D0EC4E0E
:101BF00000E00026B74201DA012000E000200028C2
:101C000004902AD0F71BF806C00E15D0029B2021A5
:101C1000091A039A8B401A430392029A019BC2400D
:101C20008B401A430292019A009BC2408B4000995C
:101C30001A430192C14000917B110DD06F460320E1
:101C4000C11A03D500218200B95003E08A00810047
:101C5000BA587A50401EF3D53746039802990028A7
:101C600000D00120014308980291002808460CD0BA
:101C7000002800D001200199019A4905084301215B
:101C8000D20AC902D202019200E001210E9B012278
:101C9000D207012B02D0002B03D013E0002807D17C
:101CA00020E0904204D890420CD1019B0B4209D015
:101CB000019B5918019105D10099491C009101D14E
:101CC0007F1C009200280DD0102108460020C0463D
:101CD0000498002806D00F98002803D00821084651
:101CE0000020C04628682168019B009A4840C10F27
:101CF0000598C90739430EC009B0F0BDFFB587B0DC
:101D0000099A0898089953689268406889689646C5
:101D10000022039317469446089A12685300099AC2
:101D20005B081268520052089A1A9E4BD4180A9AFD
:101D3000002A01D0352200E0402206920022012331
:101D400015460492DB07059324E0002D05D1754666
:101D50000346039E4D1BB34109D375466646039B5C
:101D6000491B049D9841059B7519AC465F4163462C
:101D70003B4308D0059B049EDD0776082E435B0895
:101D80000496059301E0521E641EC50FED07491825
:101D90004041521C069B9A42D7DB002D04D1754668
:101DA000039A6B1A824101D203200CE0039A0B467E
:101DB0006B404240134303D0014303D0012002E0B3
:101DC000022000E00020614601910021009702916D
:101DD0000A99002905D0614640020143704B0191E8
:101DE00002E08007002302909C4201DA012000E01B
:101DF000002007003AD01A1BD006C00E15D0029D55
:101E00002021019C091AC5408C402543029C8C402E
:101E100000D001242543019C0295009DC4408D40C3
:101E200000992C430194C140009154111DD06D467E
:101E30000221002202290CD10320001B07E0002808
:101E400004DB8600AE59002E00D00122401C03287E
:101E5000F5DB081B02D588002A5004E080002858D2
:101E600010438A00A850491EE3D51C460A98002852
:101E700002980CD0002800D001200199019A490550
:101E800008430121D20AC902D202019200E00121D5
:101E9000109B0122D207012B02D0002B03D013E0AC
:101EA000002807D11FE0904204D890420CD1019B3A
:101EB0000B4209D0019B5918019105D10099491C89
:101EC000009101D1641C009200280CD0102108461A
:101ED0000020C046002F06D01198002803D008210A
:101EE00008460020C04608980999019A009B00689E
:101EF00009684840C10F0798C907214382600AC09A
:101F00000BB0F0BD00B585B0019300920A460146C2
:101F1000002302A8FFF7FCFD02A807C805B000BD1A
:101F2000FFB50A461F4685B007990193012300912A
:101F3000014602A8FFF7ECFD02990398049ECA0F20
:101F40004900D20700920F22490892028C1A002100
:101F5000002800DB0C46450013486D08844214D36A
:101F6000079A002A04DA441E0026104DF64302E0C8
:101F700004460D460E46102108460020C046002F9C
:101F800003D0042108460020C0462005E90A084382
:101F9000009908436905F20A1143ADE602C0FFFF4C
:101FA000013C0000FF3F0000FF070000FFFFFF7F34
:101FB00000B585B0019300920A460146002302A8AD
:101FC000FFF79CFE02A807C8A8E7FFB50A461F4610
:101FD00085B00799019301230091014602A8FFF7FC
:101FE0008DFE02990398049ECA0F4900D207009201
:101FF0000F22490892028C1A0021002800DB0C46AF
:10200000450011486D08844214D3079A002A04DA67
:10201000441E00260D4DF64302E004460D460E46D2
:10202000102108460020C046002F03D00421084696
:102030000020C0462005E90A0843009908436905C5
:10204000F20A114358E60000FF070000FFFFFF7F80
:1020500010B500F0FBFA00F0F3FA10BDC80212D57B
:102060004803400F002804D0C803C0430121884022
:102070007047EFF3008000010009032109070843BE
:1020800080F30088704700207047000010B50020E2
:102090000249029A00F046FB10BD00000000F87FE4
:1020A00010B5024800F03EFB10BD00000000C07FEC
:1020B00070477546FFF776FBAE4605006946534606
:1020C000C008C000854618B020B5FEF783F860BC94
:1020D00000274908B6460026C0C5C0C5C0C5C0C552
:1020E000C0C5C0C5C0C5C0C5403D49008D4670478C
:1020F0003A2800D23038202302469A43412A01D39D
:1021000010463738884201D30020C0437047000092
:10211000FFB58BB00878FF2806D0491C2D2805D0C4
:1021200000230020009009E000200EE00123F8E7E2
:10213000009A0A2462438018491C00900878FF28FE
:10214000F6D1002B02D00098404200900025039564
:102150002C460D9800782D2801D02B2815D10D99EB
:10216000491C2D280D9102D0002003900DE0012084
:10217000FBE7401C214600270A223B460D902846DB
:1021800000F006FB35183C464C410D980678FF2EB2
:10219000EFD1002108460020C0460399002902D053
:1021A0008100401840080002860F012E01DD002644
:1021B000F6430E9900984718284620430BD0FF207D
:1021C000F530C7421ADA0398C1070B98002E416018
:1021D0000ADD012009E00398C1070B9841600B99C3
:1021E000002008600FB0F0BD00200B990860FEF7DA
:1021F000C1FE02210160182108461AE0FF20F530D7
:10220000874219DD002E02DAFC48784401E0FC48E0
:10221000784406C80B9806C00B9803994068C90714
:1022200008430B994860FEF7A5FE022101601421C6
:1022300008460020C046D5E7002108460020C046D9
:1022400039000A9001D5724200E03246002900DAD6
:10225000794207A8FFF7D0FB07AB07CB04AB07C356
:10226000E848009000200146214304D12C46054651
:10227000E44920390091210C0904014306D1290CBD
:1022800024040C4300992D0410390091210E0906F5
:10229000014306D1290E24020C4300992D0208396E
:1022A0000091210F0907014306D1290F24010C4396
:1022B00000992D01091F0091A10F8907014306D143
:1022C000A90FA4000C430099AD00891E0091E10FF5
:1022D000C907084304D100986D196441401E00905D
:1022E000002F0295019406DD32466846012304A9B9
:1022F000FFF716FE05E001233246684604A9FFF702
:1023000064FE044603980D46002802D00120C00751
:102310004440002108460020C0460A99BA4E484071
:102320000007800F07D160004008284303D06000F9
:10233000400DB04214D1FEF71DFE02210160600085
:10234000400DB0420CD1B148784406C80B9806C085
:102350000B98E10FC907406808430B99486041E7B3
:102360000B9844600B9805603CE7FFB51F4695B09D
:10237000002000250C909E685C68ED431390FFF7E9
:102380001DFAC0680168405C1490B96916986D1C0C
:1023900088470A90396A88470028F6D10A98401C75
:1023A0000AD00D20C0018443002E12DD0A982B288C
:1023B00009D02D280DD103E00020C04319B0F0BD95
:1023C000012080020443B96916986D1C8847761E67
:1023D0000A90600504A901D52D2000E02B206A4653
:1023E000491C107410A8002E0D910B903BDD0A982B
:1023F000692805D0492803D06E2801D04E281DD168
:102400003B46039002200296179A1699C043009506
:1024100001940AF0F5FBC11CD0D10FE0B969169800
:102420006D1C88470A900120761E400204431798CD
:1024300005601398401C002E139014DD0A98302874
:10244000ECD0782801D058280DD1139801280AD152
:102450003B460296179A1699001F009501940AF0C0
:10246000C7FBC11CAAD114990A98884246D1802082
:10247000044308E00C981799401E0C90012040027C
:102480000443681C0860B9696D1C1698761E88475D
:1024900030280A90EED031E01499884205D1200608
:1024A00003D480200443761E1EE00A9804F078FDD1
:1024B000002826D0012008A9400204430D980331CA
:1024C000761E88420BD20A980D99303808700D9804
:1024D000401C0D90200607D50C98401E03E02006F6
:1024E00002D40C98401C0C90A00502D51799681CCA
:1024F0000860B96916986D1C88470A90002ECBDCDD
:1025000059E0002E57DD0A98652801D0452852D1A0
:10251000A00550D50320B969000284436D1C1698AC
:10252000761E8847002E0A900CDD2B2804D02D281B
:1025300008D1FF2001300443B96916986D1C884703
:10254000761E0A90E00501D52D2100E02B210B9885
:1025500001700B98401C0B90009025E0012012A9FF
:10256000400204430B980131761E88420ED20A982D
:102570000B9930380006000E087003D100990B98B3
:1025800088420AD90B98401C0B9006E0E00501D563
:102590001F4801E01E4840420C90B96916986D1C16
:1025A00088470A9017980560002E04DD0A9804F009
:1025B000F7FC0028D2D1F969169888470D99FF20B9
:1025C00004AA08700B99087000200E900F900C9BC5
:1025D00010A90EA8FFF79CFDA00502D40120C0435E
:1025E000ECE62420044215D0E0071FD138680F9A8A
:1025F0000E99031D3B60006806C017E0EAB30000B7
:10260000DCB300003E400000FF070000A4B2000061
:10261000F1D8FFFF0EA9684604F04CFCE00705D195
:102620003868009A011D3960006802602846C5E6D6
:1026300010B50446C046C0462046FDF79EFD10BDBD
:1026400010B5002801D000F09DF810BD10B501288C
:1026500005D0002103A000F0B3F8012010BD09A1AE
:10266000F8E7000053494752544D454D3A204F7505
:1026700074206F662068656170206D656D6F72797A
:10268000000000003A2048656170206D656D6F7232
:102690007920636F7272757074656400024670B55C
:1026A0000A4392072AD11E4DEE0104C808C9541BE3
:1026B0009443344017D0D0B2D9B2401A2106014316
:1026C00010D190B299B2401A210401430AD11002EC
:1026D0001902000A090A401A2102014302D1100E10
:1026E000190E401A70BD9A42DFD010BA19BA88424A
:1026F00001D9012070BD0020C04370BD02780B7865
:10270000401C491C002A09D09A4207D102780B7854
:10271000401C491C002A01D09A42EFD0D01A70BD4B
:102720000101010110B50C461107090F092904D058
:102730000A290AD008290CD104E011460820FFF725
:102740008DFC06E0510606D501E0510601D50120B9
:10275000C007214610BDD10607D501010909CC08E3
:102760004907000E0006044309E0410F2002490713
:10277000000A0143200E00061D22D14101430846F4
:10278000E7E7000001491820ABBEFEE72600020083
:102790004343514330B55C18010C130C0D4692B203
:1027A0005D4380B251432C19054655430A0C090478
:1027B0004D1962415843010C00044019514130BD8C
:1027C00070B505460C460A2000E06D1C00F012F8BA
:1027D000002D06D028780028F7D102E0641C00F014
:1027E00009F8002C02D020780028F7D10A2000F048
:1027F00001F870BD08B5694608700320ABBE08BD7E
:10280000FFB51F4689B0139812994005C00FC00745
:1028100005900020079005460446461E049002904D
:102820003C20491C12910690B9690A988847039088
:102830001498401E14901498002841DD03982E2807
:1028400016D01021FFF754FC002834DB012104913D
:10285000079901431AD0069900290CDB069AC11783
:1028600000F044FA054306980C43001F069006E06A
:10287000012002900EE0002801D001200543012034
:1028800007900298002805D1361D03E00298002821
:1028900000D0361F1298401C1290B9690A988847D8
:1028A00003901498401E149004980028C3D00B99EC
:1028B00012980860BFE70398702808D0502806D007
:1028C000F9690A9888470498002815D051E000203B
:1028D000039001200290049800280AD01298401C0E
:1028E0001290B9690A9888471499491E00291491D1
:1028F00006DCF9690A9888470120C0430DB0F0BD95
:102900002B2804D02D280DD10020C043029012980E
:10291000401C1290B9690A9888471499491E0029E9
:102920001491E6DD411CE4D00A21FFF7E1FB002809
:10293000DFDB03990A225143081803901298401CC8
:102940001290B9690A9888470A21FFF7D1FB1499B8
:102950000B9A491E1491129911601499002901DDF6
:102960000028E6DAF9690A988847029903984843EB
:10297000861913982421084004902846204304D047
:10298000A10F8907090002D006E005989BE0A90F76
:10299000A4000C43AD00B61EE10FC907080002D128
:1029A0006D196441761E0498002803D00B20029014
:1029B0005D4803E0282002907D20C04386420390BA
:1029C00007DA811B029808184128029001DD412096
:1029D0000290029A01200021521E00F087F902465F
:1029E00028400B462140084301D0012000E0002090
:1029F00007900020521EC04343412A4023401A43FF
:102A000001D0012000E0002007990690014352D038
:102A1000002108460020C0460321059A8905084088
:102A2000002A05D082008018C20F101840100840FC
:102A30008015012802DD0020C04301E0012815D0E7
:102A4000401C38D00798002835D0069800280DD1B2
:102A5000029A0120002100F049F928402140084352
:102A600001D0012000E00020002824D0029A01209B
:102A7000002100F03BF9034640198C4661412A1AB7
:102A80008C410FD30298402807DD0498039E00284C
:102A900001D0343E02E0173E00E0761C0124002500
:102AA000E40708E05B1E62460024E4436241DD4324
:102AB000D44305400C4003980121081AB04206DABD
:102AC0001A49059808430190002000900EE060002C
:102AD0006205010BE80A1043059A009068460A4314
:102AE00013490A433146019204F050FA0498002831
:102AF0000AD01398C00714D13868019A0099031DB1
:102B00003B60006806C00CE002A8694604F0D2F9F8
:102B10001398C00705D13868029A011D3960006812
:102B200002601298EAE6000002FCFFFF0000F07F5E
:102B30000000F03FFFB51D4687B01198484A109C31
:102B4000129E40051399C00F761EC00702430192E2
:102B500000220092FF22D2051043202291434929EE
:102B6000059003D017464E2928D04FE03DA002AA79
:102B70000BC801270BC2A9690898641C8847761EF8
:102B8000014607D402A8C05D002803D0202291434B
:102B900081420AD0E96908988847032F36D0082F68
:102BA00034D00120C0430BB0F0BD7F1C032F01D0F7
:102BB000082FE0D10999601C0860DCE7A969089832
:102BC000641C8847761E2DD4B84341282AD1A969B0
:102BD0000898641C8847761E24D4B8434E2821D117
:102BE000A9690898641C884701990122D2041143FD
:102BF00001910599D200114305910999761E0C6047
:102C000001D4282806D0E969089888471198C00798
:102C100012D023E0A9690898641C8847761E01D465
:102C2000002803DAE96908988847BAE72928F1D12A
:102C30000998641C0460E9E711982421084207D030
:102C40002868019A0099031D2B60006806C005E002
:102C500028680599021D2A60006801602046A2E7E5
:102C60000000F07F494E46494E495459000000008B
:102C70000246C80FC00781434B0030B54B405B0094
:102C80009B0D20D01923DB06C91801231B0599428F
:102C900020DB0324A40704251346AB400BD3002BF1
:102CA00004D1EB0613409B00E34204D401246407E3
:102CB000002312195941FF231B0599420BD2C90069
:102CC0000143500F09E0CB0204D50143080302433E
:102CD00005D0054830BDFF21C905084330BD084671
:102CE00007210905884330BD0000C07F10B5202AA8
:102CF00004DB0146203A9140002010BD9140202382
:102D00009C1A0346E3401943904010BD70B5054638
:102D10004800440D124B0020002C0AD0634008D01C
:102D20009A4206DA6642B24203DD12054019514169
:102D300070BD002C08D0002B09D0C90FC907002A8C
:102D4000F6DB084A114370BDC90FC90770BD28469C
:102D50000A03104302D00020034970BD284670BD0D
:102D6000FF0700000000F07F0000F87F70B58D18AD
:102D70000478401CA207920F01D10278401C231155
:102D800006D10378401C03E00678401C0E70491CF5
:102D9000521EF9D1002B15D002780C2634408A1A25
:102DA000401C0C2C03D0A401121B9B1C08E00478CF
:102DB0002402121B401CF8E714780C70491C521CAA
:102DC0005B1EF9D5A942D3D3002070BD10B50146D2
:102DD000406A826B50231A420AD1816B012252024F
:102DE000114381630168CA681205920F05D020E083
:102DF000006B026B0846904710BD827E002A18D1F6
:102E00000A68120715D58A6853070122002B09DBCF
:102E10004B680C24A3434B60816B1302994311430D
:102E2000816306E0816B202319438163C16B1143E9
:102E3000C16300F08DFA10BD10B5406A816B40226D
:102E400011438163C16B04221143C16300F082FA14
:102E500010BD10B5406A00F07CFA10BDF8B504460C
:102E600000200090206881688907890F012905D119
:102E70000168C90731D1C16809042ED48168184A94
:102E800010261140012500291AD18168294381604B
:102E9000154814490068FDF74FFC00E0401E009003
:102EA0000028FBD100F0A0FD074611E000F09CFDDA
:102EB000C01B02280CD920680068C043C00707D097
:102EC000A06B3043A063E06B2843E0630120F8BDB2
:102ED00020680068C043C007E8D10020F8BD0000AA
:102EE0001700008040420F009048002010B5FEF708
:102EF00017F806F01DFD044909F072FD034909F0B9
:102F0000F3FDFDF7C9FF10BD000024420000AC43F3
:102F10000020044902460A54401CC0B26428FAD377
:102F2000704700005455002010B5024800F0B6FB71
:102F300010BD0000E448002010B5044600680549B3
:102F400040181421FDF7F8FB800020640248E0637C
:102F500010BD0000F8FFFDBF0000024030B5056C59
:102F60000124AC40C56B6C60046863604368102B3F
:102F7000036803D099600068C26030BD9A60006841
:102F8000C16030BDF7B57D25ED0084B00446022A4E
:102F900005D0554F032A20D0042A55D0A1E0294658
:102FA0000598FDF7C9FB054608466421FDF7C4FBFB
:102FB000064664210598FDF7BFFB08460A21FDF788
:102FC000BBFB07460A210598FDF7B6FB3801401800
:102FD000207028018019607083E039460598FDF75C
:102FE000ABFB0646414F08463946FDF7A5FB01906D
:102FF00039460598FDF7A0FB08462F462946FDF700
:103000009BFB054639460598FDF796FB084664216B
:10301000FDF792FB074664210598FDF78DFB0846F6
:103020000A21FDF789FB00900A210598FDF784FB32
:1030300000980001401820702901C819607001989B
:1030400031010818A0704CE029490598FDF774FB80
:10305000009008462749FDF76FFB0646254905986D
:10306000FDF76AFB08463946FDF766FB02903946D4
:103070000598FDF761FB1D4F08463946FDF75CFBDF
:10308000039039460598FDF757FB08462F46294619
:10309000FDF752FB054639460598FDF74DFB0846FE
:1030A0006421FDF749FB074664210598FDF744FBC1
:1030B00008460A21FDF740FB01900A210598FDF71B
:1030C0003BFB01980001401820702801C019607076
:1030D0000298010103980818A0700098310108189F
:1030E000E070002007B0F0BDA086010010270000AE
:1030F0008096980040420F000848827A0146843149
:10310000CA7002784A7042788A70827804490A70DC
:10311000C2784A700079887070470000383F0020FC
:1031200078530020002210B537A31146104602F054
:10313000AFF838480446C178843CA17241782170C8
:103140008078607034480178A1704178E1708078AF
:10315000207101223049314800F0BEFF01222D4983
:103160002E4800F097FFA07A2146000968313030E0
:103170000870A07A0007000F303048700020887077
:1031800021780A0921466B3130320A702278120701
:10319000120F30324A70887061780A0921466E3108
:1031A00030320A7062781207120F30324A7088701B
:1031B000A1780A092146713130320A70A2781207CB
:1031C000120F30324A708870E1780A092146743152
:1031D00030320A70E2781207120F30324A7088706B
:1031E00021790A092146773130320A702279120793
:1031F000120F30324A708870322212390A7030222F
:103200004A70887010BD00003135C8D5C6DAD0DEEE
:10321000B8C40D00BC3F002078530020284900208E
:1032200010B5002102A30422084602F031F810BDB7
:103230003136CAB1BCE4D0DEB8C40D0072B6FEE7C8
:10324000F8B50025044620340095227D012A39D0A6
:103250000122227503689E68760767D4384F4E684E
:10326000BE424DD09E6A0F78BA4016439E6201233B
:10327000C26A1B079A421FD0012A1DD0022A1BD006
:10328000032A19D0042A17D0052A15D0062A13D0EC
:10329000072A11D002688B6856697607760FB34209
:1032A0000AD05369DB08DB005361006842690B7A7E
:1032B0005B075B0F1A4342610A68102A04D0112A87
:1032C00002D038E00220F8BD1E488368102A07D0DB
:1032D00001229205134383600868102803D02AE076
:1032E0000122D205F6E7194817490068FDF724FACC
:1032F0000A21484300E0401E00900028FBD11AE05C
:10330000986A0E78B240904398620968102901D0FB
:10331000112910D10B488268102904D00121890598
:103320008A43826007E00121C905F9E7816B202209
:10333000114381630125002020752846F8BD000057
:10334000011000000027014040420F00904800207B
:103350007047704770470000F8B500260446002803
:1033600005D0A06B25462035002802D007E00120BB
:10337000F8BD0020E0632875204600F0A9F8A06B96
:103380001022C006002870DB2068816849076CD4D1
:10339000A16B1301994302231943A1638168890733
:1033A000890F012905D10168C9070FD1C168090436
:1033B0000CD4C16818239943A3681943C1602068DD
:1033C0000169636889008908194301612068C1683F
:1033D0003D4B1940C160207E617E8003C9030843D4
:1033E000A17E4B031843A36A012B02D001231B03C8
:1033F00000E000231843E36818432369022B09D037
:10340000002318432B79E57E5B0018430123012D2F
:1034100002D00AE00423F4E7002927D0A16B20257D
:103420002943A163E16B1943E163E1690D46FF3D67
:10343000C23D02D0256A294308432168CD6805436F
:10344000CD600125E16A2D07A94213D0012911D0D1
:1034500002290FD003290DD004290BD0052909D04A
:10346000062907D0072905D010E028E0012109042A
:103470000843DAE721684D69ED08ED004D612168E8
:103480004D69A78D7F077F0F3D434D612168C96856
:103490000E4D2940814207D10020E063A06B8008D7
:1034A0008000401CA06308E0A06B02218843104309
:1034B000A063E06B1843E06301263046F8BDA06BC3
:1034C0001043A063F8E700001902FEFFE7FF3F8307
:1034D00070B586B0054614216846FDF72BF92149E1
:1034E000286888423BD120498A69401502438A6195
:1034F0008A69024005924A69000202434A614969A9
:10350000002601400591FF20009003200190092032
:1035100069460296C00600F081F91448144C41C473
:103520008020266060604000A0608000E060202075
:103530002061C00160610E48083C00F0FDF80028E1
:1035400001D0FFF77BFE09487830816A090909013B
:103550008162816A0122114381622C63656206B037
:1035600070BD00000024014000100240080002402D
:10357000E4480020F7B5044600680025806840074D
:103580003DD426462036307D01280AD001273775E4
:10359000607E012807D02046FFF760FC050002D0BE
:1035A0002EE00220FEBDA06B16490840FF2101312C
:1035B0000843A0630020E0633075216B12488862E5
:1035C000216B1248C862216B1148086321681C20D6
:1035D0000860206841681022114341602068C1687A
:1035E0003943C1602168206B4031029B019A00F091
:1035F000CDF82068816804221143816000E0022533
:103600002846FEBDFEF1FFFFCD2D0008532E000819
:10361000392E000830B5014620314B780022022BAC
:1036200004D0042383630A70012030BD03681C6842
:103630000E25AC431C6003681C68640864001C60B1
:103640000123056C1C46C06BAC4044604B700A7093
:10365000002030BD70B50024014620314A78022A8E
:1036600003D004218163012416E0026813680E254B
:10367000AB431360026813685B085B0013600122B0
:10368000056C1346AB40C56B6B604A7000220A7034
:10369000416B002900D08847204670BDF0B4C16B53
:1036A0000D6801680C680422066C1346B3402B4277
:1036B0000DD063070BD50B689B0602D40B689343B0
:1036C0000B60016C8A40C16B4A60C16A19E0022735
:1036D000B74002462F4001232032002F15D0A70704
:1036E00013D50C68A40604D40C680A25AC430C60FE
:1036F0005370036C02219940C36B59600021117013
:10370000816A002916D0F0BC08470827B7402F422D
:1037100010D024070ED50C680E25AC430C60046C49
:103720001946A140C46B616083635370002111701E
:10373000016BE6E7F0BC704770B5040021D00221B0
:103740002046203005464170226811680E48A36863
:103750000140606826691843E3683343184363698E
:103760001843A3691843E3691843084310602046CF
:10377000FFF7E2FB0021A163012068702970084671
:1037800070BD012070BD00000FC0FFFFF8B50446FA
:103790008C46203001780025012909D001260670C9
:1037A00041780027012905D0077002252846F8BD79
:1037B0000220F8BD02214170A76320680168490812
:1037C0004900016061462046FFF7C8FBE06A002817
:1037D0002068016802D00E22114306E00A2211433C
:1037E000016020680168042291430160206801683B
:1037F00031430160DAE7000070B5044600F0F4F8E8
:103800000546601C02D004480078241800F0ECF84B
:10381000401BA042FAD370BD84480020F8B50023B5
:1038200003240125BAE02E469E40B44632407CD0A7
:103830000E79B607B60F012E01D0022E17D1866879
:103840002746B6465E00B74000967646BE43B6466B
:10385000CF68009EB7407646374387604668674624
:10386000BE430F79FF06FF0F9F40374347600E7935
:10387000F643B6070ED0C6682746B4465E00B64685
:10388000B7406646BE43B4468F687646B740664644
:103890003743C7600E79B607B60F022E14D1DE0883
:1038A000B60036180096366A5F07B446FE0E0F273C
:1038B000B646B7406646BE43B4460F697646B74043
:1038C00066463743009E376206682746B4465E0068
:1038D000B646B7406646BE430F79B446BF07BF0F32
:1038E0007646B7406646374307604E68B603B60F64
:1038F00053D02D4FBE692E43BE61BE699F08F607A7
:10390000F60F2A4EBF00BE190096B6680F27B446C0
:103910009E07360FB646B7406646BE430927FF06E8
:10392000B446B84202D1002710E036E0204FB8423A
:1039300001D101270AE01F4FB84201D1022705E05B
:103940001D4FB84201D1032700E005277646B74056
:1039500066463743009EB760184EB6684F68964378
:10396000FF0200D51643154FBE60FE684F689643B0
:10397000BF0200D51643114FFE607E684F68964324
:10398000BF0300D516430D4F7E603E684F689643D7
:10399000FF0300D51643094A16605B1C0A681646E9
:1039A000DE4000D03FE7F8BD0010024000000140BB
:1039B0000004004800080048000C004800040140D2
:1039C0000069084000D001207047426913460B404F
:1039D0001B0491430B4383617047002A01D081612E
:1039E000704781627047000001488068704700009E
:1039F00084480020024881680278891881607047F5
:103A00008448002010B50648016810221143016067
:103A1000032000F007F800F027F8002010BD000098
:103A20000020024070B504460D4D7D202978C0006D
:103A3000FCF782FE01460B480068FCF77DFE00F0B3
:103A40009BFC002809D1042C07D200222146401EED
:103A500000F02AF800206C6070BD012070BD0000ED
:103A6000844800209048002008B508488169012258
:103A700011438161816911400091C26901040A43C7
:103A8000C261C0690840009008BD000000100240FB
:103A9000002805DBC106C90E0120884001490860E5
:103AA0007047000000E100E010B503F0CDF910BD53
:103AB000F8B505460068354CC00352D5E0690026CC
:103AC000C00007D4E16920040143E161E1690140DC
:103AD000012600912E480168C90510D4016882159D
:103AE00011430160FFF780FF074604E0FFF77CFF0A
:103AF000C01B642824D826480068C005F6D5206A73
:103B000003273F02384020D06968394081421CD0E9
:103B1000206A226AB843012109040A432262226A08
:103B20008A4322622062C0070FD0FFF75DFF00903A
:103B300008E0FFF759FF0099411A1648814201D960
:103B40000320F8BD206A8007F3D5206A6968B8436E
:103B500008432062002E04D0E16901200007814360
:103B6000E1612878C00705D0206BA9688008800033
:103B7000084320632878800605D5206B10218843F0
:103B8000E968084320630020F8BD000000100240EF
:103B90000070004088130000F8B50F46060059D0A9
:103BA0003A4D2868C007C00FB84209D228684008BB
:103BB0004000384328602868C007C00FB84249D188
:103BC0003068334C81070CD5400704D56068072165
:103BD0000902084360606068F0218843B1680843C7
:103BE00060603078C00726D0706801280ED0216848
:103BF00002280ED0890700292CDA6168890889001B
:103C000001436160FFF7F0FE00900DE02168890339
:103C1000F1E78901EFE7FFF7E7FE0099411A1D4838
:103C2000814201D90320F8BD60680C210840716809
:103C300089008842EFD12868C007C00FB8420BD96D
:103C4000286840084000384328602868C007C00F33
:103C5000B84201D00120F8BD3078400706D5606831
:103C6000072109028843F1680843606000F028F8E2
:103C70006168094A0906090F515CC8400749086094
:103C80000320FFF7CFFE0020F8BD00000020024017
:103C9000001002408813000024D000089048002043
:103CA0000448054900684968044A4905490F515CC0
:103CB000C8407047904800200010024034D00008EF
:103CC00010B50F494B680C201A4602400D48042AD3
:103CD00014D0082A12D19A020B4C120FA45CC96AA4
:103CE000094A0907090F1032525CD903890F0023D2
:103CF0001946FCF7D8FA214603F06AF810BD000017
:103D00000010024000127A0004D00008FEB5040042
:103D100071D02078DC4DC00749D068680007800F5B
:103D2000012820D068680007800F022804D1686845
:103D3000C003800F022816D0012062680004012A07
:103D400018D08100002A01D0052A17D02A688243A2
:103D50002A60286888432860606800281BD0FFF725
:103D600043FE064613E02868800320D560680028DB
:103D7000CED01CE0296801432960EDE72A680A4398
:103D80002A60F7E7FFF730FE801B642870D82868A8
:103D90008003F7D50BE0FFF727FE064604E0FFF7A8
:103DA00023FE801B6428F1D828688003F7D420788C
:103DB0000126800700283EDA68680007800F13D0CC
:103DC00068680007800F022804D16868C003800F6C
:103DD000012809D0E068002828681DD030432860F9
:103DE000FFF702FE07460CE0286880070CD5E06864
:103DF000012800D108E043E1FFF7F6FDC01B0228CF
:103E0000C4D828688007F7D52868F8218843216935
:103E1000C900084328600EE0400840002860FFF712
:103E2000E3FD074604E0FFF7DFFDC01B0228ADD825
:103E300028688007F7D42078000722D5E069002899
:103E4000686A0ED030436862FFF7CEFD074604E093
:103E5000FFF7CAFDC01B022898D8686A8007F7D50B
:103E60000FE0400840006862FFF7BEFD074605E02E
:103E70009DE0FFF7B9FDC01B022887D8686A80075C
:103E8000F7D4207804274007002860DA002001904A
:103E9000E869C00008D4E969B8060143E961E96945
:103EA000014001200091019078480168C90511D4B2
:103EB0000168821511430160FFF796FD009005E04F
:103EC000FFF792FD0099401A642870D86F48006887
:103ED000C005F5D5A06801280AD0002801D0052822
:103EE00010D0286A400840002862286AB84301E0E0
:103EF000286A30432862A068002812D0FFF774FDBA
:103F000000900AE0286A38432862F1E7FFF76CFD69
:103F10000099411A5E48814249D8286A8007F5D540
:103F20000DE0FFF761FD009006E0FFF75DFD0099F1
:103F3000411A574881423AD8286A8007F5D4019837
:103F4000002804D0E869012109078843E861207846
:103F5000C00635D5606901280CD0401D686B23D0A0
:103F600038436863686B400840006863FFF73CFDB6
:103F7000064622E0686B38436863686B30436863C9
:103F8000FFF732FD064604E0FFF72EFD801B0228F6
:103F90005BD8686B8007F7D5686BF8218843A16907
:103FA000C900084368630BE0B8436863F4E74CE07A
:103FB000FFF71AFD801B022847D8686B8007F7D4EB
:103FC000206A00285ED069680907890F022942D05B
:103FD000012636060228286805D0B0432860FFF77E
:103FE00003FD044633E0B0432860FFF7FDFC0746BD
:103FF00004E0FFF7F9FCC01B022826D828688001DE
:10400000F7D4E86AE16A000900010843E862616ADE
:10401000A06A084369687B22D20391430843686021
:10402000286830432860FFF7DFFC044604E0FFF710
:10403000DBFC001B022808D828688001F7D521E0A6
:10404000FFF7D2FC001B022801D90320FEBD28681F
:104050008001F5D416E00128F8D06868E96A0322E7
:10406000D203636A02409A420AD10907E26A090F41
:10407000914205D10F2189040840A16A884201D0EC
:104080000120FEBD0020FEBD001002400070004077
:104090008813000010B500680B464068C021C94372
:1040A00001400002000ECC04D870E40E5C708C0657
:1040B000A40E0904490F9C701970002A0AD101F05E
:1040C000F5FDD870587801F0F1FD5870987801F03E
:1040D000EDFD9870002010BD10B50B460168896A8F
:1040E0005960016809694904490C996000680168D0
:1040F0000E4801408802800E4C041870640E5C70FB
:104100004C06640E4902C90F9C70D970002A0AD16E
:1041100001F0CCFD1870587801F0C8FD58709878FF
:1041200001F0C4FD9870002010BD00007F7F7F006B
:1041300010B5040003D0607F002802D006E0012003
:1041400010BD00202077204600F044F80220607760
:104150002068C168C943C90636D5CA2141622168B1
:1041600053204862204601F0B4FD002826D1206883
:104170008168174A114081602168886862686369B4
:10418000104322691A43104388602168E06808617F
:10419000206801692289120411430161204601F05F
:1041A000B9FD00280AD121680A6C01239B049A43B7
:1041B0000A6421680A6CA3691A430A642268FF2111
:1041C0005162002801D010BD00200121617710BD8F
:1041D000BFFF8FFF00680549884205D10448016A86
:1041E0000122D20311430162704700000028004001
:1041F0000010024070B50446007F0B4601280FD026
:104200000126267702206077002A0BD0D8789D7887
:10421000000405435878097800024903084317E071
:10422000022070BD5878C10603D5EF2108400A303E
:104230005870D87801F042FD0504587801F03EFD31
:1042400000020543987801F039FD054318784003D2
:1042500005432168CA2048622168532048622046ED
:1042600001F037FD002809D1074805402068456066
:10427000204601F04FFD002800D166772268FF211B
:1042800051620021217770BD3FFFFF00F8B5044661
:10429000007F0D46012821D0012020770220607781
:1042A000206800278068002A1AD0400600D4EF70EA
:1042B0002878AE78000406436878E978000289051A
:1042C000084306432168CA20486221685320486297
:1042D000204601F0FEFC002815D02CE00220F8BD9D
:1042E000400600D4EF70287801F0E8FC06046878F6
:1042F00001F0E4FC00020643A87801F0DFFC06436D
:10430000E8788005DDE70E480640206806602068F2
:10431000816801229204914381602969E868084319
:1043200021688A6810438860204601F0F3FC002869
:1043300001D1012161772268FF2151622777F8BD01
:104340007F7F7F0070B5044621680A48C860FFF788
:104350004BFB7D260546F60006E0FFF745FB401BBC
:10436000B04201D9032070BD2068C0688006F4D532
:10437000002070BD5D7D0100094910B5401E8842D6
:1043800001D9012010BD074C60610321081F02F014
:104390005BFD0020A06107202061002010BD00000F
:1043A000FFFFFF0000E000E070477047F0B50246F5
:1043B0002032137F012B1ED001251577022353775E
:1043C00006687468B3687027BC430F68274377603A
:1043D00000680A4CA04205D0094CA04202D0094C0A
:1043E000A04204D180244968A343194381605577D2
:1043F00000201077F0BD0220F0BD0000002C01402D
:10440000000400400040014070B5040005D025467E
:104410002035687F002802D006E0012070BD002012
:104420002877204600F014F802206877211D2068C4
:1044300001F0FCFC01204034A071A877E8772070DF
:104440006070A070E070207160716877002070BDAE
:1044500008B50068094988420FD109488269C1142A
:104460000A438261806900220840009001210D20EA
:10447000FFF71AFB0D20FFF70BFB08BD002C0140D6
:1044800000100240014620314A7F012A01D001205C
:10449000704702224A770268D36801210B43D36038
:1044A0000068094A904205D0084A904202D0084A62
:1044B000904204D182685207520F062A02D0026845
:1044C0000A43026000207047002C014000040040B5
:1044D00000400140F8B5054604462035287F0026F7
:1044E000012817D001202877022068772268906879
:1044F0007727FF23B8431B02984390600868502831
:1045000038D00EDC20284FD006DC00284CD01028F4
:104510001ED149E00220F8BD302845D0402817D1EF
:104520003AE060282ED0702819D001221203801A98
:104530000FD090420CD1CB684A688968206801F09E
:10454000C1FC20688168012292031143816000E070
:10455000012601206877002028773046F8BDCB6817
:104560004A688968206801F0ADFC21688868384392
:104570008860EEE7CA684968206801F0B6FC5021FF
:10458000206806E0CA684968206801F0BFFC602125
:10459000206801F0A2FCDCE7CA684968206801F0E5
:1045A000A4FC40212068F4E7226801461046F0E7A9
:1045B0007047F8B504460068C66805690027A90772
:1045C000002913DAB10711D5F91E01610120207706
:1045D000206880698007204602D0FFF7E9FF04E0E9
:1045E00000F07BF8204600F079F82777680716D5A9
:1045F000700714D504202168C04308610220207789
:10460000206880698005800F204602D0FFF7D0FF28
:1046100004E000F062F8204600F060F827772807F1
:1046200015D5300713D508202168C0430861042040
:1046300020772068C0698007204602D0FFF7B8FFC6
:1046400004E000F04AF8204600F048F82777E80632
:1046500016D5F00614D510202168C0430861082043
:1046600020772068C0698005800F204602D0FFF7C0
:104670009FFF04E000F031F8204600F02FF8277784
:10468000E80708D0F00706D001202168C043086180
:10469000204600F025F8280608D5300606D58020EB
:1046A0002168C04308612046FFF77EFE680608D5F2
:1046B000700606D540202168C0430861204600F0FE
:1046C0004FF8A80608D5B00606D520202168C043BB
:1046D00008612046FFF769FEF8BD7047704700008B
:1046E00070B51C49884233D103F0CCFC1A4C01262A
:1046F000E0680025401CE060A079401CC0B2A071B9
:104700000A280AD9A078052806D902202671E07067
:104710000146072002F034FAA571E121E0680901A1
:10472000884201DC206903E0E5602069401C2061CB
:10473000182802DD6661256102E06069012807D161
:1047400006486561816CA269891AE161806CA0618B
:1047500070BD000048490020D03E0020404E00209F
:104760007047704710B5044600F01AF8000704D5EA
:1047700020688169082211438161074920688842C5
:1047800008D1064800210176014601228C316038AB
:1047900000F0C2F910BD0000003801402C55002087
:1047A0008030406870470000F8B502680446D06960
:1047B000116893689E4D06462E4025468035002E92
:1047C00071D09C4FDE07F60F0F4037437ED0C707EE
:1047D00006D0CF0504D5012717626A683A436A609C
:1047E000820708D5DA0706D0276802223A626A688B
:1047F00004273A436A60420708D5DA0706D02368DF
:1048000004221A626A6802231A436A60020709D501
:1048100020220A40324305D0236808221A626B68BE
:1048200013436B60020509D54A0107D501222368AD
:10483000D2021A626B68202213436B606A68002AF6
:1048400039D0800606D5880604D5A16E002901D08E
:1048500020468847686821688968490602D428216B
:1048600008422DD0204601F035FC216888684006BA
:1048700022D5EFF31080012282F310888A6840234A
:104880009A438A6080F31088606F002814D06A49C8
:104890004163606FFEF7DEFE00280CD0606F416B55
:1048A00008E000E012E0830610D58B060ED5A16E5D
:1048B000A3E020468847F8BD2046FFF753FFF8BD28
:1048C0002046FFF74FFF00206860F8BD236E012BE4
:1048D0007ED1C3067CD5CB067AD51023136222681D
:1048E0009068264640064036002848DA616F08681E
:1048F00040680004000CE8D0378B8742E5D970830C
:104900008869202834D0EFF31080012181F31088CA
:1049100011681F01B943116080F31088EFF3108014
:10492000012181F3108821688A68520852008A6048
:1049300080F31088EFF31080012181F31088216843
:104940008A684027BA438A6080F310882020286054
:1049500000202066EFF31080012181F31088216888
:104960000A689A430A6080F31088606FFEF752FE6F
:1049700002206066308B718B401A81B234E0308B3C
:10498000718B401A81B2708B00289ED000299CD078
:10499000EFF31080012686F310881668FF27213771
:1049A000BE43166080F31088EFF31080012282F37B
:1049B00010882268966876087600966080F31088E2
:1049C0002020286000202066A066EFF3108000E021
:1049D0000EE0012282F31088226815689D4315605D
:1049E00080F31088022060662046FFF7BAFEF8BD0B
:1049F000030606D50B0604D5E16E002900D058E762
:104A0000F8BD4006FCD54806FAD52046EFF31081E4
:104A1000012383F31088146840239C43146081F3BE
:104A200010882021C1670021C16600F087F9F8BD18
:104A30000F08000020010004C160000810B5040048
:104A400003D0E06F002802D007E0012010BD002154
:104A500078200155204600F027F82420E0672068E0
:104A60000168490849000160606A002802D02046B8
:104A700001F05FFA204601F01FFF0128E6D0206810
:104A800041680122D2029143416020688168082276
:104A90009143816020680168012211430160204632
:104AA00001F0ACFA10BD000010B586B00446142128
:104AB0006846FBF73FFE15492068884224D1144818
:104AC0008269012189030A43826182690A40059251
:104AD000426909010A434261406908400590C020CB
:104AE0000090022000210190032002910491039084
:104AF00069460848FEF792FE002211461B20FEF789
:104B0000D3FF1B20FEF7C4FF06B010BD00380140E4
:104B1000001002400004004870B580231B58202B71
:104B200001D0022070BD00290BD0002A09D0012439
:104B300083682403A34206D10369002B03D1CB076A
:104B400001D0012070BD00230366046863681B0266
:104B50000BD5EFF31083012585F310882568012616
:104B6000B6063543256083F3108801F051FF70BD10
:104B700070B5404909783F4AEC3A904279D13E4CB1
:104B800060780025002817D06078022819D0607856
:104B9000032829D06078062604282ED06278204683
:104BA0008068052A34D06278062A4ED06278072AB7
:104BB0005FD116294CD01EE0682954D125710220FE
:104BC00017E0A078012807D02B48A2780C30815438
:104BD000A078401CA07046E0682902D06570A570DE
:104BE00041E0A570032004E0E170E078802802D85D
:104BF0000420607037E0657035E0A171A079D0289D
:104C0000F9D8A079002801D00520F2E766702AE0E3
:104C1000A279002A2DD064225043164A32328018DD
:104C2000227981542079401C2071124901220846C2
:104C3000EC38FFF771FF2079A179884200D16670C6
:104C40002079A1798842D6D80DE061710720D0E79C
:104C5000657001212170401CC117890F091889084E
:104C60008900401AA060034901220846EC38FFF78A
:104C700053FF70BDB85500206C480020FFB50446B6
:104C8000C06F83B017460D46202802D0022007B01F
:104C9000F0BD002D0BD0002F09D00120A16800032A
:104CA000814206D12069002803D1E80701D0012004
:104CB000EDE70021842001512120E067FEF794FEFA
:104CC000264640360190378277820120A168000392
:104CD000814202D12069002802D02F46002511E030
:104CE00000270FE000228021204601F0F5FE002879
:104CF00015D1002F17D02168387808857F1C708A5D
:104D0000401E7082708A019B002806980090E9D1AD
:104D100000224021204601F0DFFE00280AD020209A
:104D2000E0670320B3E728882168C005C00D088527
:104D3000AD1CE4E72020E0670020A8E77047FEE70D
:104D40002E4810B50146427E2039CA70827F3F232B
:104D50006030002A16D0012A27D0022A2FD005233E
:104D6000DB01274C032A35D0042A27D1CA78072A29
:104D700001D30622CA70C97850225143FF31413114
:104D8000C16334E0CA78092A01D30822CA70C978FD
:104D90000A2251433231C163C16B3C2900D1C36344
:104DA000C16B82290AD17D2112E0C9780A225143C0
:104DB0003C31C163C16B3C2900D1C36310BDCA78CB
:104DC0000C2A01D30C22CA70C97814225143A03195
:104DD000C16310BDCA780F2A01D30E22CA70C978E8
:104DE0001E225143FA31C163C16BFA2904D0C16B51
:104DF0009942EED1C46310BDFC21C1E7383F0020C9
:104E00007602000070B50D460646002407E0311911
:104E1000642301220348FFF731FF641CE4B2AC4273
:104E2000F5D370BDCC54002010B50346FEF770F8E2
:104E30001649682088700870A0204870002B17D091
:104E4000102B06D0012B03D17120C87001200871EE
:104E500010BD1420C8700E48007848710D480078C5
:104E600088710D480078C8710C480078087210BD30
:104E70005120C8700A4A002013180C18401C5B7996
:104E8000C0B263710428F7D310BD00005455002050
:104E9000833F0020823F002063480020813F0020A4
:104EA0007A570020FFB58BB0B032D0B21C460591C6
:104EB0000190D4E0019807F06BF805980609000707
:104EC000000F10360690F0B207F062F8069807F06F
:104ED0005FF8207880286CD90B98002802D0012830
:104EE00032D132E0002528461A2148436949227808
:104EF0000B5C934223D14018029041786078814244
:104F00001DD101980027401C08900BE00C2F09D1FF
:104F10000898C0B207F03CF8F0B207F039F80698EC
:104F200007F036F80298C019807807F063F87F1C04
:104F3000FFB2182FEAD305980C30C0B205906D1C53
:104F4000EDB2A92DCFD3A41C73E0002528461A2169
:104F50004843504923780A5C9A4225D14018029070
:104F60004178607881421FD101980027401C089049
:104F70000BE00C2F09D10898C0B207F009F8F0B285
:104F800007F006F8069807F003F80298C019807831
:104F9000C043C0B207F02EF87F1CFFB2182FE8D331
:104FA00005980C30C0B205906D1CEDB2A92DCDD383
:104FB000C9E70D2844D00598801D802809D9002014
:104FC00005900198801CC0B201903F2801D90020B3
:104FD0000190002501984019C0B206F0D9FFF0B247
:104FE00006F0D6FF069806F0D3FF0B98002839D0BC
:104FF0000027284606214843039020780C21484387
:10500000254941180398C0190818FF3881380078DD
:10501000C043C0B206F0EEFF7F1CFFB2062FECD3F8
:105020006D1CEDB2022DD5D30598801DC0B2641C55
:1050300005902078002800D03CE701200FB0F0BD9B
:105040000198641C801CC0B201900020059001985A
:1050500006F09EFF0025102006F09AFF284606F075
:1050600097FFE6E70027284606214843039020786B
:105070000C214843084941180398C0190818FF3803
:105080008138007806F0B6FF7F1CFFB2062FEED302
:10509000C6E7000000000020D80F0020FFB58BB04D
:1050A000B032D0B21C4605910190D3E0019806F0D1
:1050B0006FFF059806090007000F10360690F0B242
:1050C00006F066FF069806F063FF207880286CD90A
:1050D0000B98002802D0012832D132E00025284662
:1050E0001E214843684922780B5C934223D1401823
:1050F00002904078617888421DD101980027401CB9
:1051000008900BE00E2F09D10898C0B206F040FFBE
:10511000F0B206F03DFF069806F03AFF0298C0197B
:10512000807806F067FF7F1CFFB21C2FEAD305983A
:105130000E30C0B205906D1CEDB2302DCFD3A41C43
:1051400072E0002528461E2148434F4922780B5C17
:10515000934225D1401802904178607881421FD156
:1051600001980027401C08900BE00E2F09D10898E9
:10517000C0B206F00DFFF0B206F00AFF069806F086
:1051800007FF0298C0198078C043C0B206F032FF12
:105190007F1CFFB21C2FE8D305980E30C0B20590DB
:1051A0006D1CEDB2302DCDD3C9E70D2843D0059845
:1051B000C01D802809D9002005900198801CC0B22C
:1051C00001903F2801D90020019000250198401945
:1051D000C0B206F0DDFEF0B206F0DAFE069806F088
:1051E000D7FE0B98002838D00027E800401B03901A
:1051F00020780E214843254941180398C019081802
:10520000FF38C1380078C043C0B206F0F3FE7F1CFF
:10521000FFB2072FECD36D1CEDB2022DD6D305984B
:10522000C01DC0B2641C05902078002800D03DE766
:1052300001200FB0F0BD0198641C801CC0B2019029
:1052400000200590019806F0A3FE0025102006F02E
:105250009FFE284606F09CFEE6E70027E800401B7C
:10526000039020780E214843084940180399C91932
:105270004018FF38C138007806F0BCFE7F1CFFB232
:10528000072FEED3C7E700004C1400209C3100200C
:10529000FFB58BB0B032D0B21C4605910190D2E080
:1052A000019806F075FE059806090007000F1036F4
:1052B0000690F0B206F06CFE069806F069FE2078C3
:1052C00080286CD90B98002802D0012832D132E016
:1052D0000025284622214843674922780B5C9342E7
:1052E00023D1401802904078617888421DD10198FE
:1052F0000027401C08900BE0102F09D10898C0B27D
:1053000006F046FEF0B206F043FE069806F040FEB8
:105310000298C019807806F06DFE7F1CFFB2202F26
:10532000EAD305981030C0B205906D1CEDB2B52DD2
:10533000CFD3A41C71E000252846222148434E49C2
:1053400023780A5C9A4225D140180290407861780F
:1053500088421FD101980027401C08900BE0102FB5
:1053600009D10898C0B206F013FEF0B206F010FEA4
:10537000069806F00DFE0298C0198078C043C0B2AE
:1053800006F038FE7F1CFFB2202FE8D305981030BE
:10539000C0B205906D1CEDB2B52DCDD3C9E70D2877
:1053A00042D005980830802809D90020059001983E
:1053B000801CC0B201903F2801D900200190002537
:1053C00001984019C0B206F0E3FDF0B206F0E0FD2E
:1053D000069806F0DDFD0B98002837D00027E8007E
:1053E000039020780101254809180398C01908186E
:1053F000FF38FF3802380078C043C0B206F0FAFD2B
:105400007F1CFFB2082FECD36D1CEDB2022DD7D359
:1054100005980830C0B2641C05902078002800D0A0
:105420003EE701200FB0F0BD0198641C801CC0B2A3
:10543000019000200590019806F0AAFD002510209B
:1054400006F0A6FD284606F0A3FDE6E70027E800E3
:10545000039020780101094809180398C019081819
:10546000FF38FF380238007806F0C4FD7F1CFFB219
:10547000082FEED3C8E7000092190020CE36002096
:10548000F8B50020E24AE34BFF242D348100555843
:105490005D50401CA042F9DBDF480078002820D096
:1054A000DE48DF4D0168DF482B4600246033AF7FC4
:1054B000007805291CD003291FD001297ED0DA4E9F
:1054C000062932687BD007297AD0022979D02A466A
:1054D000D64E5279082975D0042974D0032954D0A6
:1054E000B1E00021D2A303220846FFF7D1FEF8BDA8
:1054F000CC4900284CD10720B8E0C94E20360128FD
:105500001AD0022818D0042816D0052814D006284E
:1055100010D0082810D009280ED0062821D00C2839
:1055200028D00D2826D00A282DD007282BD00F28C8
:1055300029D02AE0002F16D101F074FD01206870F7
:10554000BF480A210460BF480460BF480460B548F2
:10555000AC770170B24874738030C4613473AC703E
:1055600029E0002F6FD0697B0F296CD101F05AFD23
:10557000AC77F8BD01F056FDA9488030C461A94858
:1055800004210170F8BD002F03D0A64E002870D072
:1055900059E0A34D8035AC6201F044FDA848046099
:1055A000A8480460A84804609E4804707473EC61C5
:1055B0009B48347384709A48AC3005E009E00DE0F4
:1055C00019E023E02AE039E0047044708470C4706C
:1055D000F8BD9449002836D1022047E0002832D196
:1055E000697B0F292FD1521C3260092A00DD3460FB
:1055F00001F018FDF8BD002825D1697B0F2922D1C3
:10560000521E3260F4D509203060F1E78549002848
:1056100019D1EA7F002A16D00F2027E0002812D1E6
:10562000697B0F290FD1012AE4D188490120087034
:1056300034700221072001F0A3FAD9E7002802D133
:10564000697B0F2903D09979002932D12EE0012AF4
:10565000D0D17449032008707C49022008700146AB
:105660003470072001F08CFA794901200870BFE7F7
:10567000FFE701209871002280230221104601F0EB
:10568000ABFC68790028B5D10320704930700870F0
:105690000221072001F074FA6D49022008700022EF
:1056A00001468023104601F097FCF8BDD979002906
:1056B00001D0002811D06C73002816D0604907284B
:1056C00009681ED00A2821D0012824D0022846D0FB
:1056D000042866D0052867D04DE09879012801D0CC
:1056E000D879F8BD02F0FEFCF8BD687B0F2805D024
:1056F000687B0F28F8D005F063F9F8BD03F04EFE83
:10570000F8BD002937D103F0F5FFF8BD002932D1EB
:1057100002F0A8FFF8BD00290CD001290DD0022904
:105720000ED003290FD0042910D0052911D0062945
:1057300012D020E003F03CFEF8BD03F059FEF8BDA6
:1057400003F066FEF8BD03F0DBFEF8BD03F0E8FEF3
:10575000F8BD06F0FFF9F8BD03F0FEF8F8BD3A49D0
:10576000096800290ED001290FD0022910D0032981
:1057700011D0042912D036490978012917D00229FD
:105780001AD01BE003F01AFFF8BD03F039FFF8BD93
:1057900003F074FFF8BD03F08FFFF8BD03F09CFF2A
:1057A000F8BD03F073F8F8BD03F0CAFEF8BD032896
:1057B00004D102F013FCF8BD032893D006280CD0C6
:1057C000082819D009281AD00C281BD00D281CD065
:1057D0000F28F0D101F05EFDF8BD002F06D0012F9B
:1057E00007D0022FF8D106F033F9F8BD00F0DCF94C
:1057F000F8BD05F0C3FDF8BD04F00AF9F8BD06F0E8
:1058000099FEF8BD03F0ACFEF8BD02F0CBFAF8BD8E
:10581000404E002090490020D03E0020D83E00207D
:10582000183F00200C3F0020083F0020D43E0020FD
:1058300020D5FDD4DAB3F5CABCBBAF2E2E2E0000A6
:10584000003F0020103F0020043F0020D33E0020F6
:10585000143F0020FEB500243749384800940194D5
:10586000029412C001250426011D046070C1047455
:1058700044748574C474FF21C2318461416101465E
:1058800018310D7104620838FDF766FD002801D05B
:10589000FDF7D4FC012000030190694602960094B4
:1058A0002648FDF7CDFC002801D0FDF7C7FC69466E
:1058B00022480095FDF7C4FC002801D0FDF7BEFC8E
:1058C0000220009069461D48FDF7BAFC002801D06F
:1058D000FDF7B4FC0320009069461848FDF7B0FCC2
:1058E000002801D0FDF7AAFC694614480096FDF790
:1058F000A7FC002801D0FDF7A1FC05200090694617
:105900000E48FDF79DFC002801D0FDF797FC06200E
:10591000009069460948FDF793FC002801D0FDF787
:105920008DFC0720009069460448FDF789FC00289B
:1059300001D0FDF783FCFEBD00240140A4480020F7
:1059400008B50848416901221143416140690D21B0
:105950001040009000220920FEF7A6F80920FEF76B
:1059600097F808BD00100240F0B587B014216846D2
:10597000FAF7E0FE2A484269012149040A434261DC
:1059800042690A400592426949000A4342614269FC
:105990000A400592426909010A4342614069214C6B
:1059A0000840214F0590002221463846FEF715F8A1
:1059B0007E01092000223146C006FEF70EF8009451
:1059C0000024012501950294694638460394FDF7A9
:1059D00025FF072040030090019469460294384651
:1059E000FDF71CFF1F20000200900920019469466A
:1059F0000294C006FDF712FF092002946946C00612
:105A0000009601950394FDF709FF0320009001948F
:105A10000294694603940548FDF700FF07B0F0BD06
:105A2000001002401F1C0000000400480014004841
:105A300010B586B014216846FAF77CFE0024194997
:105A40001948059412C07F2101608460C460FF2161
:105A5000046141600838FEF76BFB002801D0FDF7B8
:105A6000EDFB162168460170447084700394012296
:105A700069460D480494FEF709FC002801D0FDF7A3
:105A8000DDFB01206946087548758875CC750246AE
:105A900005A90548FEF7AEFB002801D0FDF7CEFBB7
:105AA00006B010BD002800402849002010B586B07F
:105AB0000024009417480194029403940494144918
:105AC0000594016014498460416004614461134994
:105AD0008461C160FEF798FC002801D0FDF7AEFBA1
